:020000040804EE
:1000000000000824212F06086D2F06083D790508F9
:1000100043790508497905084F7905080000000073
:10002000000000000000000000000000DD370408B0
:100030006D2F060800000000773804088738040890
:100040006D2F06086D2F06086D2F06086D2F060808
:100050006D2F06086D2F06086D2F06086D2F0608F8
:100060006D2F06086D2F06086D2F06086D2F0608E8
:100070006D2F06086D2F06086D2F06086D2F0608D8
:100080006D2F06086D2F06086D2F0608513C0608D7
:10009000613C06085D3C06086D3C06086D2F0608AD
:1000A0006D2F06086D2F06086D2F06086D2F0608A8
:1000B0006D2F06086D2F06086D2F06086D2F060898
:1000C0006D2F06086D2F06086D2F06086D2F060888
:1000D0006D2F06086D2F06086D2F06086D2F060878
:1000E0006D2F06086D2F0608000000006D2F060812
:1000F0006D2F06086D2F06086D2F06086D2F060858
:100100006D2F0608292C06086D2F06086D2F06088E
:100110006D2F06086D2F06086D2F06086D2F060837
:100120006D2F06086D2F06086D2F06086D2F060827
:100130006D2F0608CB6704086D2F06086D2F060883
:100140006D2F06086D2F060800000000000000005B
:100150006D2F06086D2F06086D2F06086D2F0608F7
:100160006D2F06086D2F06086D2F06086D2F0608E7
:100170006D2F06086D2F06086D2F06080000000081
:100180006D2F06086D2F06086D2F06086D2F0608C7
:100190006D2F06086D2F06086D2F06086D2F0608B7
:1001A0006D2F06086D2F06086D2F06086D2F0608A7
:1001B0006D2F06086D2F06086D2F06086D2F060897
:1001C0006D2F06086D2F06086D2F06086D2F060887
:1001D0006D2F06086D2F06086D2F06086D2F060877
:1001E0006D2F06086D2F06086D2F06086D2F060867
:1001F0006D2F06086D2F06086D2F06086D2F060857
:100200006D2F06086D2F06086D2F06086D2F060846
:100210006D2F06086D2F06086D2F06086D2F060836
:100220006D2F06086D2F06086D2F06086D2F060826
:100230006D2F06081D2F06086D2F06086D2F060866
:100240006D2F06086D2F0608251204086D2F06086D
:100250006D2F06086D2F06086D2F06086D2F0608F6
:100260006D2F06086D2F06086D2F06086D2F0608E6
:100270006D2F06086D2F06086D2F06086D2F0608D6
:100280006D2F06086D2F06086D2F06080000000070
:100290006D2F06086D2F060810B5054C237833B96D
:1002A000044B13B10448AFF300800123237010BD49
:1002B000E018002400000000FC69070808B5034BA3
:1002C0001BB103490348AFF3008008BD00000000E4
:1002D000E4180024FC690708154B002B08BF134BDA
:1002E0009D46A3F5803A00218B460F461348144AD9
:1002F000121A2BF03DFB0F4B002B00D098470E4BF2
:10030000002B00D098470020002104000D000D486C
:10031000002802D00C4818F089FA2AF027FE2000A5
:10032000290005F06FFC18F095FC00BF00000800E4
:100330000000082400000000615B0408E0180024AD
:10034000001D05242D8805080000000000207047CE
:100350000020704700207047002070470020704741
:100360007047036853F8683C184470477047036847
:1003700053F8743C18447047C3680BB19B68184726
:10038000704738B50D460431044611F021F8EB688A
:100390002046C4F8843053F8843C2A692344C3F8C7
:1003A00084202B68236053F8843C6A69E250AB696F
:1003B000C4F8843038BD00000B4B10B50360134601
:1003C0000A460A49044611F003F804E0204611F0F9
:1003D00051FC27F0F5FA064B2046236003F58073A5
:1003E000C4F8843010BD00BF642707080C1207084A
:1003F000A812070870B53A483A4D2DED088B01F068
:10040000EDFB394BC0B2412818705ED046280AD1A6
:10041000334801F0E3FB0446314801F0DFFB334B86
:1004200040EA042018802B88B7EE009AF6EE008A86
:10043000DFED2F9A08EE103A0024B0EE69BA2D4D88
:10044000B8EEC88AF0EE49AAB0EE68AA07EE904A64
:10045000F8EEE77A67EEA97A17EE900A28F058FFCF
:1004600007EE900A77EE897A68EE277A67EEA87A27
:10047000FCEEE77A17EE903A25F8143001344FF687
:10048000FF739C42E2D100251B4E07EE905AF8EE16
:10049000E77A67EE8B7A17EE900A28F039FF07EEBD
:1004A000900A77EEAA7A68EE277A67EE8A7AFCEEEF
:1004B000E77A17EE903A26F815300135A542E4D1D7
:1004C0000E4BBDEC088B1D8070BD054801F086FB0E
:1004D0000446034801F082FB40EA04202880A2E79A
:1004E00060350424060000240800002404000024D1
:1004F000A410C93862260224602600245E26022445
:10050000F8B5104C07460D461646B4F90000002811
:1005100003DB0021C0B203F0EDF845EA07110A48F9
:10052000C9B200F035FD3146074800F044FDB4F98A
:100530000000002805DB0121C0B2BDE8F84003F04F
:10054000D9B8F8BD0A000024A424002473B5134EC2
:100550004FF4E1311248002401F0A6FB304600F0D0
:1005600090FD104B01258DF80440009302AB8DF8EF
:100570000550304613E9060000F063FD0A4B29469A
:10058000187803F033F8224621460E20FFF7B8FF13
:1005900002B0BDE87040FFF72DBF00BFA4240024C7
:1005A0006035042480C3C9010A000024F8B523483B
:1005B00001F0A2FA002806DD204801F00FFB5328C5
:1005C00001D1FFF717FF1E4E00211E4F0320338875
:1005D0001D4D37F81320FFF793FF2B881B4C01218B
:1005E00037F813200320FFF78BFF23880221032015
:1005F00037F81320FFF784FF154F338804210320B9
:1006000037F81320FFF77CFF2B880521032037F8EC
:100610001320FFF775FF23880621032037F81320E6
:10062000FFF76EFF0B4B32881B881A4432802A88F2
:100630001A442A80228813442380F8BD603504249C
:1006400060260224622602240C0000240E000024EE
:10065000602600240400002408B54FF480720021B5
:100660002BF086F90022C0F80021C0F80421C0F860
:10067000082108BD10B50446006808B118F06DFBEC
:10068000204610BD0B4B10B5044640F8643BFFF705
:10069000F1FF04F14C00FFF7EDFF04F13400FFF728
:1006A000E9FF04F11C00FFF7E5FF201DFFF7E2FF63
:1006B000204610BD080F07082DE9F041002205462D
:1006C0001E4B0446114645F8043B284611F0E2FC57
:1006D00004F11C0600223046114611F0DBFC04F147
:1006E000340700223846114611F0D4FC04F14C08BE
:1006F00000224046114611F0CDFC002204F16400B6
:10070000114611F0C7FC10E04046FFF7B3FF384632
:10071000FFF7B0FF3046FFF7ADFF2846FFF7AAFF0F
:1007200027F04EF9F3E7F5E7F7E70023204684F8D2
:100730007C30C4F88030BDE8F08100BF080F0708A6
:1007400010B50446FFF718FE204610BD38B5044624
:100750000D4689B91368236085B9526853F8843C03
:10076000E25004F17400FFF7EBFFAB0702D520461F
:1007700011F080FA204638BD024BECE7014A002315
:10078000EEE700BF242607080A460021FFF7DEBF78
:1007900000220221FFF7DABFD0F800C0ACF1240C30
:1007A000DCF800C06044F3E710B50446FFF7F0FF43
:1007B0008421204618F0BEFA204610BDD0F800C0B3
:1007C000ACF1240CDCF800C06044EDE770B50446E1
:1007D0000D4609BB1368236005BB516953F8843C7F
:1007E000E150F5B99169234643F8841FDDB902F160
:1007F0000C010868C4F884004E6850F8841C5E50F0
:100800009DB9111D2046FFF7BFFFAB0702D520465B
:1008100011F030FA204670BD054BDCE70449002397
:10082000DEE70449DFE70449E3E70449EAE700BFFC
:10083000A8120708A8130708141207080C120708C3
:1008400000220221FFF7C2BFA0F18400F8E7D0F830
:1008500000C0ACF1240CDCF800C06044F0E710B537
:100860000446FFF7EDFF8821204618F063FA204682
:1008700010BDA0F18400F2E7D0F800C0ACF1240C68
:10088000DCF800C06044EAE70A460021FFF79EBF9B
:1008900038B5094B00F54365044600F6BC4040F806
:1008A0008C3CFFF7CDFF2846FFF7ECFE04F53C60DB
:1008B00000F09EFC204638BD101507082DE9F843CE
:1008C000044677227821002500F062FA16221721CB
:1008D00004F50F7000F05CFA7B227C2104F58F6038
:1008E00000F056FA4FF6FF76DFF8688120274FF4C4
:1008F0007A798923C4F8B85604F2DC60C4F8B48667
:10090000C4F8C876C4F8CC56C4F8D056A4F8D45667
:10091000A4F8D636A4F8D866A4F8DA66C4F8BC966B
:10092000FFF79AFE092384F8EC5704F61800A4F8A0
:1009300010380A23C4F8F457C4F8F087C4F80478D0
:10094000C4F80858C4F80C58A4F81238A4F814686D
:10095000A4F81668C4F8F897FFF77EFE6E2384F8B3
:10096000285904F65410A4F84C396923C4F83059B6
:10097000C4F82C89C4F84079C4F84459C4F84859DB
:10098000A4F84E39A4F85069A4F85269C4F834990F
:10099000FFF762FE982384F8645A04F52960A4F8EE
:1009A000883A9923C4F86C5AC4F8688A04F53C68FC
:1009B000C4F87C7A04F6BC47C4F8805AC4F8845A58
:1009C000A4F88A3AA4F88C6AA4F88E6A04F54366FF
:1009D000C4F8709AFFF740FE84F8A05B81232322BD
:1009E000222104F6A43000F071FB4FF0FF334222C5
:1009F0001221404600F0A8FB3046FFF75DFE144B85
:100A000084F8B85CC4F8303C1D4606F059F88146BD
:100A100010F048FA024649463846FFF7CDFCC4F8C4
:100A2000447D04F5556000F04FF80DE03046FFF7C7
:100A300029FE404600F0DCFB26F0C2FFC4F8305C23
:100A40003846FFF7FDFEF1E72046BDE8F88300BF1A
:100A5000101507088C15070810B5054C2046FFF740
:100A60002DFF2046034A0449BDE8104017F0DCBEC4
:100A700000190024000000249108040810B5044661
:100A8000002018F0CDFA0129A06008BF00282046F8
:100A90002CBF01230023237310BD82B008B502A927
:100AA00081E80C009DF814100023049A11B1003263
:100AB00043F101031946C0E90223104618F078FA01
:100AC000BDE8084002B0704730B5034A0024002555
:100AD0000260C0E9024530BD2C14070800207047B1
:100AE00070470368C9B21B68184749000023C161F9
:100AF000C0F82C327047036801211B6B184710B4F3
:100B000003689C6B0123A4465DF8044B6047D0F852
:100B10002C32B3F5807F1FBF5A1CC0F82C22C0189E
:100B200080F82C1114BF012000207047D0F8280154
:100B300070477047C0F830127047C0F834127047E1
:100B4000D0F82831A3B1D0F828318BB1D0F82431B6
:100B5000D0F824210344013293F82030D2B2C0F8F7
:100B60002421D0F82821013AC0F8282118467047DE
:100B70004FF0FF307047D0F828312BB1D0F8243136
:100B8000184490F8200070474FF0FF30704738B598
:100B9000036804465B6A9847FC2018F097F8B4F99C
:100BA0001A20B4F91810054612F0E6FE656138BD4A
:100BB000FC21284618F0BEF826F002FF0B680360FF
:100BC0004B6843608B688360704738B5D0F82C322F
:100BD0001446054600F596701A441844B2F5807F15
:100BE00088BFC3F5807422462AF0C4FDD5F82C32A4
:100BF00020462344C5F82C3238BD38B50446406938
:100C00000D4608B112F0D1FD206920B12946BDE89A
:100C1000384012F009BF38BD07B581F0010100F579
:100C200096720091D0F82C32C169406912F0D0FD63
:100C3000002814BF0220002003B05DF804FB10B5AB
:100C40000446406920B10368DB689847002363616C
:100C500023699BB1D4F8380218F0B3FBD4F83802FA
:100C600018F013FCD4F8380210B103685B68984799
:100C70009C21206918F05EF80023236110BD70B537
:100C8000C2B083F001030446154602AE009349004A
:100C900013464069324612F0BAFDC8B9A84218D0CE
:100CA000D4F82831B3F5807F10D0D4F82031325CED
:100CB000234483F82020D4F820310133DBB2C4F878
:100CC0002031D4F828310133C4F828310130E5E768
:100CD0000025284642B070BD30B50446BDB00025A1
:100CE000206912F0AAFE0328FAD8DFE800F04A02D1
:100CF0001212D4F8343203B19847D4F82C22002AC7
:100D0000EED004F59671206912F09BFEC4F82C52C7
:100D1000E6E7C4F82051F022C4F824516946C4F82B
:100D20002851206912F08BFE002282421DDAD4F88D
:100D30002831B3F5807F18D0D4F82831B3F5807FFF
:100D400011D0D4F820311DF80210234483F820106C
:100D5000D4F820310133DBB2C4F82031D4F8283183
:100D60000133C4F828310132DFE7D4F82831002BF1
:100D7000B6DDD4F83032002BB2D0D4F82801984731
:100D8000AEE702F001FCABE70022C2607047000052
:100D900038B500254FF47A7304460183428329460F
:100DA0004FF48072C0E901530A4BC0E90455036057
:100DB00020302AF0DDFDC4F82051C4F82C52204622
:100DC000C4F82451C4F83052C4F82851C4F834523D
:100DD00038BD00BF5414070810B504460021FFF7C2
:100DE000D3FF204610BD10B50446FFF7C5FA2046D4
:100DF00010BD10B4D0E9003409686210E4075DF852
:100E0000044B01EB020044BF8A58D35818470146EF
:100E1000043008B5FFF7EDFF08BD0000034A0346A4
:100E2000C26007C983E80700704700BF3414070891
:100E300010B586B004460391684606A980E80C0008
:100E400001E90C00204603A9FFF7E8FF204606B0A1
:100E500010BD37B56C46054684E80C0094E80C00DC
:100E6000FFF7E6FF284603B030BD00002DE9F04152
:100E70000368054688B00E465B6A98479C2017F0C9
:100E800025FFB5F91A20B5F91810044612F0B2FD85
:100E9000710020462C6112F0C9FDBC2017F016FF2E
:100EA00004460646234B04F1400746F8043B30460F
:100EB000FFF792FF0021384618F0E8F904F15408D2
:100EC000404618F081F91C4B4FF40062182120466F
:100ED0000093002318F06AFA184B294604A8C5F8B5
:100EE000384202930023039302AB0CCBFFF7B1FF10
:100EF00004A9204618F004FB10E0404618F0A4F9BD
:100F0000384618F002FA3046FFF76DFFBC21204644
:100F100017F010FF26F054FDF2E7F4E704A8FFF7FE
:100F200062FF08B0BDE8F0819C21F0E704A8FFF75C
:100F30005AFFEFE7AC3A070840140708D90C040839
:100F400008B5FFF764FF08BD08B5FFF7F9FF08BD56
:100F500010B50B2002F0D0FA04460C2002F0CCFAB7
:100F6000214602460748FFF713FF162217210648BD
:100F7000FFF70EFF7B227C210448BDE81040FFF7FD
:100F800007BF00BF602604249C280424D82A042418
:100F900010B5C36886B001228DF80F100DF10F0156
:100FA000186803680092DC680DF11703A0479DF8EC
:100FB000170006B010BDF8B5427A044603680E4625
:100FC000CFB29B680D0A62B939469847236860F32F
:100FD000070629469B682046984760F30F26B0B263
:100FE000F8BD29469847236860F30F2639469B6869
:100FF0002046984760F30706F1E7C36813B5186801
:1010000003680092DC680B46A04702B010BD704731
:1010100070477047C36810B5044653B1186840B1B3
:1010200003685B6898470421E06817F083FE00239B
:10103000E36010BD10B50446182117F07BFE204672
:1010400010BD436873B599426D4604460E4685E867
:10105000060004D1BDF8042003899A420FD0E3684A
:1010600008219DF80420186812F02DFFE36831462E
:10107000186812F046FF0098AB886060238102B0C8
:1010800070BD73B5C568044625B9042017F01EFE6F
:10109000E0600560E3681B6883B94FF0FF36742099
:1010A00017F014FEB4F91430B4F910200546B4F961
:1010B0001210009613F00CF8E3681D6002B070BDCA
:1010C0007421284617F036FE26F07AFC70B5064DDE
:1010D0000126018205600025467245600572C560E3
:1010E0004282838270BD00BFAC14070838B50A2065
:1010F00002F002FA0546082002F0FEF90446092033
:1011000002F0FAF9094B0A4A0121988218461A603E
:10111000002259725A601A72DA601D825C82054A96
:101120000549BDE8384017F07FBB00BF142D0424EB
:10113000AC1407080000002413100408303000F03D
:10114000D4B8303000F0AAB810B504460B48C4E952
:1011500002234FF0FF33C4E90433C4E90633042308
:10116000C4E90001236204F1300000F089F8002393
:1011700020462366024B1C6010BD00BFE814070820
:10118000A02D042410B50446FFF7F6F8204610BD44
:10119000064B10B504460360806A08B116F0AAF841
:1011A000201DFFF7EFFF204610BD00BF582807089D
:1011B00010B50446FFF7ECFFFC21204617F0BAFDFE
:1011C000204610BD10B50023064C1A46194620468D
:1011D000FFF7BAFF2046044A0449BDE8104017F063
:1011E00023BB00BF302D042400000024F1110408AB
:1011F000054B002210B5044640F8303B034B1A6003
:1012000000F018F8204610BDE8140708A02D0424AB
:1012100010B50446FFF7ECFF7021204617F08AFD59
:10122000204610BD024BD3F884001AF0EFBB00BF7C
:10123000A42D0424704710B50446302117F07AFD20
:10124000204610BD10B50446816900692AF046FCAD
:101250002061D4E905012AF041FCA2696061002106
:1012600020692AF085FBA269002160692AF080FBD1
:101270000023E362E36123626362A36210BD0000A6
:10128000054B10B503604FF4007304468361FFF70C
:10129000D9FF204610BD00BF0015070838B5044629
:1012A0000846E36A063304EB83035D68E36A0833A8
:1012B00004EB83035B68ED1A954228BF154695B190
:1012C000E26AE36A083304EB83035968131D2A4674
:1012D00054F8233019442AF04DFAE36A04EB8304EE
:1012E000636A2B446362284638BDC36A063300EB49
:1012F00083035A68C36A083300EB83004068101AFE
:101300007047D0F8140118B1036853F8843C1844AE
:1013100070470000054B10B5044640F88C3BFFF7C2
:101320008FFA2046FFF7AEF9204610BD10150708CA
:1013300038B5124C2046FFF7BFF9114B236000234C
:1013400084F8883005F0BCFB05460FF0ABFD024683
:10135000294604F18C00FFF72FF804F18C00094AAC
:101360000949C4F814012046BDE8384017F05CBABA
:101370000248FFF787F926F023FB00BF3C2E042428
:101380001015070800000024151304080C307047DE
:10139000CB68C3600BB15B6818477047002070478B
:1013A0000020704730B5A1F11004002500F00F02B5
:1013B000CD7302390009D3B2092ACCBF3733303399
:1013C0000B748C42F2D130BD2DE9FF470024061D7D
:1013D00005468A4690469946009423464FF0FF32D0
:1013E000B1213046CDE9014412F090FC296828462D
:1013F000DDE90C23CDE9002342464F694B465146B7
:10140000B847009423464FF0FF32C1213046CDE962
:10141000014412F07BFC204604B0BDE8F0872DE9C2
:10142000D04F9B460368924604469B6ADDE90889D3
:10143000984702460B465046594626F063FE134332
:1014400002D00020BDE8D08F236820469B6A9847D1
:1014500002460B464046494626F054FE1343F0D15F
:101460001AEB0806236820464BEB09079B6B98474D
:10147000B94208BFB0422CBF01200020E2E701685A
:101480002DE9F04114461D46096B06468847024681
:101490000B462046294626F035FE134302D0002095
:1014A000BDE8F081DDE906233046A71845EB0308C7
:1014B00017F1FF323368196B48F1FF338847024652
:1014C0000B463846414626F01DFE1343E7D13368EC
:1014D00030469B6B9847414508BFB8422CBF01205E
:1014E0000020DDE72DE9D04F9B4603689246044675
:1014F0005B6ADDE90889984702460B465046594623
:1015000026F000FE134302D00020BDE8D08F2368F0
:1015100020465B6A984702460B464046494626F0FD
:10152000F1FD1343F0D11AEB0806236820464BEB7C
:1015300009079B6B9847B94208BFB0422CBF0120F6
:101540000020E2E7C2207047244830B5037887B016
:10155000BFF35B8F13F001041CD117F075F9C8B10C
:101560001F4B66223B211F48CDE903435A23CDE997
:1015700001323D233C220093572319F08BF9194C7B
:10158000194B1648236017F081F9184A204618496C
:1015900017F04AF9134819F0B7FB164D1A22002329
:1015A00029461048CDE9002300230022FFF70CFF55
:1015B0002B780446B52B04D10F4B01221D600F4B35
:1015C0001A70084819F0FCF9B4FA84F0400907B021
:1015D00030BD024817F062FB26F0F2F97C2F04249C
:1015E000005A6202882F04241C15070800000024FA
:1015F000B11704089031042410000024802F042423
:101600000D4B187830B10D4B1B689A8840F202439D
:101610009A420FD80A4B9B6D03F46043B3F5004F19
:1016200007D0064B1B685878172894BF002001206C
:1016300070470020704700BF802F04241000002452
:101640000044025810B5044619F0FAFF2146FFF78E
:10165000A9FE19F0FBFF04F11001FFF7A3FE19F03A
:10166000FBFF04F12001FFF79DFE302010BD0000BC
:1016700008B54DF65972002107481FF039FCBFF339
:101680004F8F0649064BCA6802F4E0621343CB60F1
:10169000BFF34F8F00BFFDE7582F042400ED00E09B
:1016A0000400FA0500B5C3B01622172103A812F0F2
:1016B00063F94FF4A17302AA1021ADF8083000239A
:1016C00003A80093022312F083F803A8FFF760FD3C
:1016D00043B05DF804FB03A8FFF75AFD26F070F94C
:1016E0001D4B01211D4AA62070B51A6001F0C8FFEC
:1016F0000121A62002F044F8FFF7D4FF184B43F273
:10170000D2021A60FFF720FF164B1B7833B1164B3D
:101710001B689A8840F209439A421BD8134B9B6D71
:1017200003F46043B3F5004F14D001F0FFFE104DF9
:10173000044601F00DFF064601F00AFF801BA84297
:10174000FAD901F0F3FE001B642803D0BDE8704015
:1017500023F082BB70BD00BF582F04240040005806
:1017600000400052802F042410000024004402583E
:101770009F86010038B5074B0546044645F8BC3B3B
:1017800019F01EF9284617F05FFD201D12F0FEFA31
:10179000204638BDDC46070810B50446FFF7EAFFCF
:1017A0004FF40271204617F0C5FA204610BD000024
:1017B000034B10B504460360FFF7DCFF204610BD65
:1017C0001C15070810B50446FFF7F2FF4FF402712D
:1017D000204617F0AFFA204610BD03680868184786
:1017E00008B5011DFFF7F9FF08BD0000044A0346D4
:1017F000C260002203C99A6083E80300704700BFFB
:101800006C15070813B50446CDE900126946FFF7C9
:10181000EDFF204602B010BD10B50446FFF7F2FF01
:10182000204610BD08B5FFF7DBFF08BD08B5FFF780
:10183000F9FF08BD70B590F8383105461446F3B984
:101840000368DB69984704F4706304F00F02B3F592
:10185000407F04F0F0030CBF07210821302B0CBFA0
:1018600002230123012A08D0901E42424241A86966
:10187000BDE87040006812F053BD0222F7E770BD6A
:1018800010B590F8383104462BB9A369186812F0E6
:101890008BFD0028F9D010BD38B590F838510446BA
:1018A000A5B983695BB1186848B10368DB689847DC
:1018B000A36904211D60A06917F03CFAA56100230B
:1018C000C4F82831C4F82C31C4F8303138BD13B510
:1018D00090F8383104466BBBA369186812F038FDE4
:1018E00040B316F003FBA36901220DF1070118684C
:1018F00003685B699847D4F83031B3F5807F16D020
:10190000D4F83031B3F5807F11D0D4F828319DF868
:101910000720234483F82820D4F828310133DBB290
:10192000C4F82831D4F830310133C4F8303116F01E
:10193000F3FAD1E702B010BD08B590F838313BB1E9
:10194000012001F011FE0648BDE8084001F045BA4B
:1019500082691AB11368003318BF0123184608BD05
:10196000303C042470B504460D4601F036FA30B11F
:101970002368294620461B6CBDE87040184770BD9F
:10198000A0F59860EEE7000013B590F838310446F2
:101990008DF807102BB1C9B20B48FFF7E3FF02B077
:1019A00010BDA369186812F0FFFC0028F9D0A369E4
:1019B00001220DF10701186803681B69984701307F
:1019C00018BF0120EBE700BF303C04242DE9F041B3
:1019D00007468846164601F000FA80B10024A64268
:1019E0000ED9351B08EB04013846B5F5007F28BF3A
:1019F0004FF400752A462C4400F036FFEFE704460A
:101A00002046BDE8F081A0F59860DFE770B590F85A
:101A1000383105460E4614462BB10F48FFF7D6FF66
:101A20000446204670BDAB69186812F0BDFC002862
:101A3000F9D0AB6901211868D0F8883088301B6B69
:101A40009847AB6922463146186803681B69984776
:101A5000013008BF0024E4E7303C042430B50446DC
:101A6000C3B001F0A5F90546D4F8D835C3F58073A5
:101A7000984203DDD4F8D855C5F580752A4601ABE8
:101A800002A9204600F0E7FF019902AB00226D1A7F
:101A90001D44D4F8D835B3F5807F19D08A4217D0C9
:101AA000D4F8D835B3F5807F10D0D4F8D035A85C01
:101AB000234483F8D004D4F8D0350133DBB2C4F822
:101AC000D035D4F8D8350133C4F8D8350132E0E741
:101AD00043B030BD38B5044600F0AEFB2046FFF7FA
:101AE000BDFFD4F8D855204600F0AEFB284638BDDF
:101AF000A0F59860EEE7000010B590F83831044684
:101B00002BB10648FFF7E6FF0446204610BD16F04D
:101B1000EDF9D4F8304116F0FFF9F6E7303C042433
:101B200038B5044600F088FB2046FFF797FFD4F84D
:101B3000D8354BB1D4F8D435234493F8D05420464B
:101B400000F082FB284638BD4FF0FF35F7E7A0F5DF
:101B50009860E5E710B590F8383104462BB10B4892
:101B6000FFF7DEFF0446204610BD16F0BFF9D4F89B
:101B700030313BB1D4F82C01044494F8284016F0DD
:101B8000CBF9F0E74FF0FF34F9E700BF303C042415
:101B900038B5044600F050FB2046FFF75FFFD4F84D
:101BA000D835A3B1D4F8D435234493F8D054D4F81D
:101BB000D4350133DBB2C4F8D435D4F8D835013B81
:101BC000C4F8D835204600F03FFB284638BD4FF01A
:101BD000FF35F7E7A0F59860DAE7000010B590F858
:101BE000383104462BB11148FFF7D2FF0446204696
:101BF00010BD16F07BF9D4F830319BB1D4F82C31FC
:101C0000234493F82800D4F82C310133DBB2C4F814
:101C10002C31D4F83031013BC4F83031044616F091
:101C20007BF9E4E74FF0FF34F9E700BF303C0424D0
:101C300010B4D0E9003409686210E4075DF8044B81
:101C400001EB020044BF8A58D358184701460430BC
:101C500008B5FFF7EDFF08BD034A0346C26007C998
:101C600083E80700704700BF7815070810B586B0F5
:101C700004460391684606A980E80C0001E90C00BF
:101C8000204603A9FFF7E8FF204606B010BD37B590
:101C90006C46054684E80C0094E80C00FFF7E6FF6C
:101CA000284603B030BD000070B590F8383186B0DA
:101CB00004460E46002B3BD1856925B9042017F058
:101CC00005F8A0610560A369186850BB8C2016F068
:101CD000FDFF3346B4F922200546B4F9201012F076
:101CE0004BFEA3691D60B4F92420531C06D0A069E3
:101CF0000321B4F92630006812F04EFEA3691D6876
:101D0000B5B1114B0026214602A800936B460196FF
:101D10000CCBFFF7BCFF324602A9284612F0B2FBFB
:101D200003E0314612F0E9FADDE702A8FFF75BF8BD
:101D300006B070BD8C21284616F0FCFF25F040FE51
:101D400002A8FFF750F8F9E7CF18040808B5FFF725
:101D50007DFF08BD08B5FFF7F9FF08BD2DE9F84381
:101D600000242D4D4FF47A782C4F202605F12800C1
:101D70002F60EC61C5E90148C5E90564FEF76CFC1C
:101D800001230E2085F8383101F0B6FB244D814641
:101D90000D2001F0B1FBA5F820904FF6FF79688483
:101DA00005F128002F60EC61A5F82490A5F8269095
:101DB000C5E90148C5E90564FEF74EFC85F83841E0
:101DC0000F23184D2B84562305F128002F606B84B8
:101DD0005823EC61AB845923C5E90148EB84C5E97C
:101DE0000564FEF739FC85F8384198230E4D2B84A5
:101DF000992305F128002F60EC616B84A5F82490ED
:101E0000A5F82690C5E90148C5E90564FEF724FC5C
:101E100085F83841BDE8F883603504248C1507083F
:101E2000AC310424E8320424243404240020704714
:101E30007047704710B5D0F88C452CB12368204608
:101E4000DB6A9847A468F8E710BD38B50D46D0F8AE
:101E50008C4534B1236820462946DB689847A4683E
:101E6000F7E738BD004870474C160708054B10B51A
:101E70000446036014F005F8204614F013F92046D8
:101E800010BD00BFCC15070810B50446FFF7EEFFE4
:101E90004FF4B261204616F04DFF204610BDF7B555
:101EA000002305460E46D0F88C45A4B12368314680
:101EB0000DF1030220461F6901ABB8479DF80310DE
:101EC0000346042905D0019A284613F0E9FA03B025
:101ED000F0BDA468E9E7019A9DF80310F4E770B536
:101EE00005460E4622B10021BDE8704013F0E4B86B
:101EF000D0F88C455CB123680022314620465B69EE
:101F0000984710B101212846EEE7A468F2E7214680
:101F1000F9E770B50E460546D0F88C4500213CB176
:101F20002368314620469B699847A4680146F6E736
:101F30002846BDE8704013F0B3B9F8B505460E4623
:101F40001746D0F88C453CB1236820463A463146C6
:101F5000DB699847A468F6E728460121BDE8F84008
:101F600013F0FCB970B5002186B0044613F0E3FB12
:101F700000234FF48975A188EF26ADF80630238938
:101F8000ADF8045002258DF810301B0AE2888DF858
:101F9000113040F201238DF80750ADF8123040F2B5
:101FA00003138DF809500125ADF8143004F10A032C
:101FB0008DF8086005AE8DF80A501C468DF80C109F
:101FC00001AD090A8DF80E20120A8DF80B008DF86C
:101FD0000D108DF80F202A46083303CAB24243F889
:101FE000080C43F8041C1546F5D1128820461A80C7
:101FF00006B070BDF8B5002406460D4627463046AB
:102000002AF05EFAA04207D9335D05F8143005EBDB
:10201000440301345F70F2E7400000F0FE00F8BDB9
:1020200038B50446D0F88C5535B12B6828465B6A24
:10203000984710B9AD68F7E7284640F2023304F23A
:102040004A51A4F84835FFF7D5FF94F848351844AD
:1020500084F8480504F5A96038BD000040F2023359
:1020600000F20A5110B50446A0F808350548FFF7FC
:10207000C1FF94F80835184484F8080504F5A160F8
:1020800010BD00BFB815070840F2023310B5044672
:10209000A0F8C83400F2CA40FFF7D4FA94F8C83464
:1020A000184484F8C80404F5996010BD2DE9FF4177
:1020B00000231D4A044600F54E788DF80A300925A4
:1020C00090F888350192FA228DF8083001238DF8B6
:1020D0000C208DF80930C0238DF80B3001AB03CBF9
:1020E000C4F83803C8F8041088F80820D4F88C65C0
:1020F0008EB13368002130469B689847478805F5C4
:102100004E7300F10901093FE0183A463D4429F0B9
:1021100031FBB668ECE784F83A5340462D1284F858
:102120003B5304B0BDE8F0810902FFFF73B50446DC
:102130000D46164621F0FCFC4FF4807301462A46FA
:1021400020460093334613F069FF024B204623607C
:1021500002B070BDCC15070810B5D0F88C35044618
:10216000A3B9C0F88C1594F8883508464A790B71E4
:1021700094F88835134484F888350B689B6A98472F
:10218000238918442081012010BD13469A68002A33
:10219000FBD19960E7E71FB5044613F0C7FA014683
:1021A000684612F0C1FC4021684612F02FFDD4F8B9
:1021B0008C4534B12368694620461B6A9847A46859
:1021C000F7E7684612F0B7FC04B010BD684612F09D
:1021D000B2FC25F0F5FB10B50446FFF7DCFF204606
:1021E000BDE8104013F089BA0F4808B50378BFF373
:1021F0005B8FDB0711D416F027FB70B140F25B2236
:1022000042F241310948FFF791FF074816F03EFBC3
:10221000074A0849054816F007FB044808BD02486C
:1022200016F03CFD25F0CCFB9C360424A03604249B
:10223000000000246D1E040810B5FFF7D5FF0368E9
:10224000BDE810405B6F184710B5FFF7CDFF03687E
:10225000BDE810409B6F184710B5FFF7C5FF036836
:10226000BDE81040DB6F184712F006BE12F01ABE30
:1022700012F0F2BD704770477047436A93F87800D8
:102280007047D0F8A4047047012070470048704799
:10229000C41707082DE9F04794B004460F464B22B7
:1022A000002101A829F064FB2679D4F8A434751C18
:1022B00094F80E90002B94F80C80EDB294F80DE099
:1022C00014BF05200020002F40F0938040F2092326
:1022D00009218DF81D0042F20540ADF804304FF49D
:1022E00081738DF815100121ADF808308023ADF809
:1022F0001E0010208DF80B3032234FF0040A2427E3
:102300008DF80C3008234FF0030C4B228DF80D3064
:102310000B238DF819101D348DF80E3040F2022376
:102320008DF81C10ADF8103002238DF82100052027
:102330008DF822108DF825108DF8271006218DF8C4
:1023400006208DF80F608DF812308DF817608DF82B
:102350001A308DF81B308DF823008DF826C08DF8CB
:102360002A308DF82B108DF82C008DF816A08DF8E2
:1023700024708DF828A08DF829708DF82D708DF8B7
:102380002E1007218DF82F6041F202068DF83110D2
:102390008DF8411040F207518DF83050ADF836609D
:1023A00040F209468DF83A5040F602258DF8320089
:1023B0008DF842002046ADF848100DEB0A018DF86B
:1023C00033908DF834C0ADF83860ADF83C508DF8DE
:1023D00043808DF844308DF846308DF84AE08DF812
:1023E0004B308DF84D3029F0C5F9204614B0BDE8CA
:1023F000F0870020FAE700000A4B10B5044603609E
:10240000FFF7F2FE13F03DFD04F5247012F098FC86
:1024100004F17C0012F094FC04F1700012F090FCC6
:10242000204610BD8417070810B50446FFF7E4FFE7
:102430004FF49561204616F07DFC204610BDFFF755
:102440000BBF0000034B10B50446036012F034FBD1
:10245000204610BD9416070810B50446FFF7F2FF9A
:102460002821204616F066FC204610BD034B10B50F
:102470000446036012F020FB204610BD64160708D6
:1024800010B50446FFF7F2FF3421204616F052FC47
:10249000204610BD034B10B50446036012F00CFB40
:1024A000204610BD7C16070810B50446FFF7F2FF62
:1024B0003821204616F03EFC204610BD38B51E4B94
:1024C0000D4604464FF400721968C0F80F10998841
:1024D0009B79A0F8131002214375284612F08CFB5B
:1024E0004FF4007220730221284612F08AFB4FF449
:1024F000007260730321284612F07EFBA073284609
:1025000012F01AFB20B9AF220C490D4815F0F6FB6A
:1025100004F185020023C4F8882204F2992284F889
:10252000783084F88430C4F88C3284F89832C4F857
:102530009C24C4F8A03438BDB01607085F170708FC
:102540006A1707082DE9F34104460E461546FFF7C2
:1025500083FEF28823799A4237D1002D35D17778DE
:10256000012F2ED1F378202B27D13289072A24D1AD
:1025700004F10F0804F116054046294629F0C8F871
:10258000D0B1D4F81630C4F80F30638B207CE17BD7
:10259000A4F8133001EB0021E57C607C237F01EB84
:1025A00000410095A07C2568637501EB0061237DE7
:1025B0002046627D6D6BA8473D46F378212B08BF0E
:1025C0000125284602B0BDE8F0810025F9E710B5E5
:1025D0000446FFF741FEFFF707FE217B13F0EEFAFA
:1025E00004F1850304F17C00C4F888320023C4F8A8
:1025F0008C3284F8843012F058FB94F884302BB974
:1026000023682046DB6BBDE81040184710BD000072
:1026100070B50446FFF720FED4F8A0542DB140F267
:10262000DD120F490F4815F069FB04F29923C4F835
:102630009C34FFF7D9FD617B13F01EFA84F89852A1
:10264000C4F8A00404F5247012F02FFB94F898321B
:102650002BB9236820469B6BBDE87040184770BDBE
:102660005F170708BC16070802232DE9F0414371E4
:1026700000230446054683609046144B04F17C0613
:1026800045F8703B284612F003FB304612F000FB81
:1026900004F52477384612F0FBFAC4F8A484FFF757
:1026A000A3FD2146FFF758FD0CE0384612F048FB29
:1026B000304612F045FB284612F042FB25F080F927
:1026C000F6E7F8E72046BDE8F08100BF8417070869
:1026D00070B504460D46FFF7BFFD84F87850002D15
:1026E0003ED194F8843033B1FFF77EFD217B13F0A7
:1026F0003DF884F8845004F1850304F17C0600253C
:102700003046C4F88832C4F88C5212F0CEFA304603
:1027100012F0C4FA28B94FF4A2721449144815F003
:10272000EDFA94F8983233B1FFF75EFD217B13F098
:102730001DF884F8985204F2992304F52475C4F81E
:102740009C3400232846C4F8A03412F0AEFA284680
:1027500012F0A4FA20B94FF4A77204490548DEE745
:1027600004F17000BDE8704012F09FBA5F170708CF
:10277000CA160708DB16070810B50446FFF76CFDFC
:1027800000212046BDE81040FFF7A2BF38B50D4636
:102790000446FFF761FD042D05D020460021BDE869
:1027A0003840FFF795BF38BDF8B5164604460D46CC
:1027B0001F46FFF751FD0423EA88337023799A42BC
:1027C00025D16978012922D1EA78212A08D0222A44
:1027D0000BD0202A4FF000001BD13070163401E0DE
:1027E0000F34317007203C60F8BDAB88204613F0F1
:1027F000010308BF1946FFF76BFFAB8803F0010325
:10280000E366AB8803F00203A36602233370002063
:10281000EAE703233370E7E710B58AB00446FFF711
:102820000BFD684612F038F90D4B694604F1700053
:102830000093099412F051FA2046FFF705FD094B69
:10284000002168461A6812F0EDF86846FFF7FAFDB5
:102850000AB010BD6846FFF7F5FD25F0B1F800BFDE
:1028600094160708B816070870B58EB004460E46D1
:102870001546FFF7E1FC01A812F00EF9114B01A972
:1028800004F17C00019300230C958DF83430CDE9E0
:102890000A4612F022FA2046FFF7D6FC0A4B002126
:1028A00001A81A6812F0BEF804E001A8FFF7DEFDE7
:1028B00025F086F89DF8344001A8FFF7D7FD2046A3
:1028C0000EB070BD64160708B816070810B50446A8
:1028D000FFF7C2FC94F884307BB9D4F88C3263B132
:1028E000FFF782FCD4F88C3204F18502217B13F0CF
:1028F00003F910B1012384F8843010BD2DE9F843A9
:102900001E460446894690469DF82070FFF794FCC9
:102910000023336094F87830E3B194F88430CBB975
:10292000D4F88C52C5F50075454528BF4546B8F129
:10293000000F05D02A464946D4F8880228F01AFF2D
:10294000D4F88C322B44C4F88C32356017B1204651
:10295000FFF7BCFF2046BDE8F843FFF775BCF0B5B4
:102960000446406A85B0012690F878502DB984F865
:1029700030503546284605B0F0BD04AB0027D4E9F9
:102980000A1243F8047D0096FFF7B8FF0399E36A43
:10299000A26A5B1A0A44E362A26213B984F8306047
:1029A000E8E7606A3D46FFF791FFE3E72DE9F04372
:1029B0001C4691B0054689469046FFF73DFC002C29
:1029C0004FF0000602A806BF01AC012700272660D1
:1029D00012F062F8134B02A905F5247002938DF8EA
:1029E0003C708DF83D60CDE90B59CDE90D8412F0B6
:1029F00074F92846FFF728FC0B4B314602A81A68E9
:102A000012F010F804E002A8FFF744FD24F0D8FF0C
:102A10009DF83D4002A8FFF73DFD204611B0BDE8FE
:102A2000F08300BF7C160708B816070810B5D0F869
:102A3000A034044673B990F898325BB9FFF7D4FB21
:102A40004FF4007304F29922617B12F0B7FF012367
:102A500084F8983210BD70B504461E46002308461F
:102A6000336094F87830EBB194F89832D3B9D4F855
:102A7000A054D4F89C14954228BF15462A4628F045
:102A800079FE3560D4F89C34D4F8A0242B44551B2F
:102A9000C4F89C34C4F8A05425B92046BDE8704061
:102AA000FFF7C4BF70BD37B50446406A90F8785050
:102AB0002DB984F835500125284603B030BD02AB4E
:102AC000002243F8042DD4E90A12FFF7C4FF01994C
:102AD000A26A0A44A262226B13680B441360019934
:102AE000E36A5B1A94F83410E36209B9126802B918
:102AF0001BB9012384F83530DEE7606A0025FFF753
:102B000095FFD9E710B50446FEF766F9204610BDDB
:102B100010B4D0E9003409686210E4075DF8044B92
:102B200001EB020044BF8A58D358184701460430CD
:102B300008B5FFF7EDFF08BD034A0346C26007C9A9
:102B400083E80700704700BFA416070810B586B0D9
:102B500004460391684606A980E80C0001E90C00D0
:102B6000204603A9FFF7E8FF204606B010BD37B5A1
:102B70006C46054684E80C0094E80C00FFF7E6FF7D
:102B8000284603B030BD0000F0B58BB00546FFF716
:102B900063FB06ACFFF728FBAF7B0646002120460F
:102BA000FFF7B0FF009403234FF40072394630461C
:102BB00013F0CAF92046FEF716F9FFF715FB234B71
:102BC00006462F7B0293002329462046039302AB3F
:102BD0000CCBFFF7CCFF009402234FF40072394670
:102BE000304613F0B1F92046FEF7FDF8FFF7FCFA86
:102BF000174B06466F7B0493002329462046059316
:102C000004AB0CCBFFF7B3FF009402234FF4007228
:102C10003946304613F098F906E02046FEF7E3F80F
:102C200024F0CEFEF9E7F8E72046FEF7DCF8FFF7E0
:102C3000DBFA4FF40073D5F89C24697B12F0BEFEDA
:102C4000012085F898020BB0F0BD00BFCF25040825
:102C50001126040808B5FFF769FF08BD08B5FFF79E
:102C6000F9FF08BD6FF01500704700290CBF6FF029
:102C7000180000207047012070476FF01500704762
:102C80006FF015007047112070477047704770470C
:102C900003689B6C1847A0F59860F9E77047704788
:102CA0007047704710B50446012000F05DFC94F8B1
:102CB000780010BDA0F59860F4E7000038B54FF03B
:102CC000FF320123FF210B4816F03BFA0A4D00F0BA
:102CD0002DFC044695F878301BB1012000F044FC2F
:102CE000F8E700F023FC001BC728F6D9BDE8384000
:102CF000FEF7BEBC68420424303C042407B502AB96
:102D0000012243F8041D1946FFF7AEFD18B10198E2
:102D100003B05DF804FB4FF0FF30F9E7A0F59560D4
:102D2000FFF7ECBF07B5002302A9012201F8013D1E
:102D3000FFF73CFE20B19DF8070003B05DF804FBEF
:102D40004FF0FF30F9E7A0F59560FFF7EBBF2DE9F5
:102D5000F8430446884617461E46089DFFF77CFA4E
:102D6000D4F8F095B9F1000F04D02B46324639461D
:102D70004046C847C4F8E085C4F8E475C4F8E8657F
:102D8000C4F8EC55BDE8F883B0F5966F03D1012186
:102D9000014816F0B5B970476842042400687047CE
:102DA0000C30704708B5FFF7FBFF0023036008BD38
:102DB00038B50546FFF740FA95F898325BB9D5F873
:102DC000A044B4F5007F28BF4FF400742846FFF7F5
:102DD0003BFA204638BD0024F8E790F878007047A9
:102DE000114B03F1780270B503600446C0F8A824C3
:102DF00000F2F45603F1D80200F23465E833C0F86B
:102E0000AC24C0F8C034AE4204D0103D2846FDF7D3
:102E1000EAFFF8E704F5956014F0F2FB2046FFF7AF
:102E2000EBFA204670BD00BFA8180708A0F5956012
:102E3000FFF7D6BFA0F2AC40FFF7D2BF10B50446F3
:102E4000FFF7CEFF4FF4C761204615F073FF204611
:102E500010BDA0F2AC40FFF7F1BFA0F59560FFF701
:102E6000EDBF00002DE9F74304461E46884615468F
:102E700020F05EFEBDF82C3004F595670146019305
:102E80002A46BDF82830204600933346FFF7ECFB76
:102E90000021384614F08AFB4FF47A73002504F2BF
:102EA000F45904F59A60C4F8C8342946204B4E46BC
:102EB000C4F8C45403F178022360C4F8A82403F1D1
:102EC000D802E833C4F8AC244FF48072C4F8C0349C
:102ED00028F04EFDC4F8D055C4F8D455C4F8D855E0
:102EE00004F2346530461036FDF776FFB542F9D16D
:102EF0000023C4F83436C4F8F035B8F1000F13D00D
:102F00002046FFF789FC0FE04D4504D0103D2846D0
:102F1000FDF769FFF8E7384614F072FB2046FFF72B
:102F20006BFA24F04DFDF9E7204603B0BDE8F083CD
:102F3000A8180708884238B5044606D00D46FDF7A4
:102F40001BFA20462946FEF723FA204638BD08B56D
:102F5000FFF726FF0068003018BF012008BD000001
:102F600010B50446FFF7F3FF28B940F202220649E4
:102F7000064814F0C3FEE068FFF710FF0346204642
:102F8000BDE81040184700BF8918070894180708C3
:102F9000F8B506460025FFF75FF906F2F454D6F8B7
:102FA0003436AB420AD920462746FFF7D0FF10340B
:102FB00020B138460135FFF7D3FFF0E7F8BD000038
:102FC000044BC36003460A6843F8042B00224260A6
:102FD0005A607047E817070813B50446019121B9F4
:102FE000FFF7E0FE204602B010BD01A9FFF7E8FFA1
:102FF000F8E710B4D0E9003409686210E4075DF81E
:10300000044B01EB020044BF8A58D35818470146CD
:10301000043008B5FFF7EDFF08BD0000034A034682
:10302000C26007C983E80700704700BFDC170708C4
:1030300010B586B004460391684606A980E80C00E6
:1030400001E90C00204603A9FFF7E8FF204606B07F
:1030500010BD37B56C46054684E80C0094E80C00BA
:10306000FFF7E6FF284603B030BD00002DE9F04130
:1030700088B00446FFF7E0F8384B2046C4F8F03536
:10308000FFF7E2F8364B04A821460293002303938E
:1030900002AB0CCBFFF7DDFF2046FFF7CDF8D4F8ED
:1030A0003406032803D92046FFF7CEF80AE0431C74
:1030B00004EB001004A9C4F8343600F2F450FFF712
:1030C00039FFF0E704A8FDF78EFEBC2015F0FEFDE9
:1030D00005460646234B05F1400746F8043B3046BB
:1030E000FDF77AFE0021384616F0D0F805F15408B5
:1030F000404616F069F81C4B4FF4807218212846A0
:103100000093002316F052F9184904A8C4F8DC55BE
:10311000FFF762FF04A9284616F0F2F910E04046D6
:1031200016F092F8384616F0F0F83046FDF75BFEE0
:10313000BC21284615F0FEFD24F042FCF2E7F4E73E
:1031400004A8FDF750FE2046FEF788FC08B0BDE855
:10315000F08104A8FDF747FEEEE7FAE7892D0408A1
:103160005D1A0408AC3A0708F4170708BD2C0408D8
:10317000A0F59860FFF77ABF0368184708B5FFF716
:10318000FBFF08BD08B5FFF742FF08BD08B5FFF714
:10319000F9FF08BD37B50F4C0F4D204615F0A0FFC5
:1031A0002A460E49204615F03FFB42F21203012247
:1031B0000B4CCDE9003200224FF4F8532046114663
:1031C000FFF750FE2A460749204603B0BDE83040CD
:1031D00015F02ABB68420424000000240D91050864
:1031E000303C0424E12D040808B526F01DFF2DE92C
:1031F000F04F027D85B005460E46012A40F08E80D4
:1032000000214FF0FF3B04460B465F4694F804C094
:1032100048B2BCF1000F73D194F805C0BCF1000FA7
:103220006ED1B7F1FF3F17BF0133012338465BB2C0
:10323000934201DD1A4683460131023408295DD1EB
:10324000002402EB0B03A1460293CB4502DC029B58
:103250004B4558DC95F8058095F804A04FEA2817EF
:1032600008F00F080AF00F035FEA2A1AFAB2019277
:103270006FD05FFA8AF1BAF1090F30460393D4BFD9
:103280003031573100F0C5F8039B0444092B304618
:10329000039394BF03F1300103F1570100F0B9F833
:1032A0000444BAF1000F02D1039B03B94FB1092FB7
:1032B000019F3046D4BF30375737F9B200F0A9F834
:1032C0000444B8F1090F304694BF08F1300108F109
:1032D000570100F09EF8B9F1070F044404D03A21D9
:1032E000304600F096F8044409F101090235B9F1BD
:1032F000080FAAD1204605B0BDE8F08F074685E744
:103300004FF0FF3098E7CB45EED1BBF1000FE6D18F
:103310003A21304600F07DF80444E0E700F1100760
:1033200000F11309002417F8011B0A22304600F0AF
:103330009DF880462E21304600F06BF8B945404498
:103340000444F0D10A22E97C304600F08FF80444AE
:10335000D0E7002B9AD1A9E7054B102210B50446FF
:10336000036001750021043028F002FB204610BDE7
:10337000C419070870B5074D8374056000259DF8D2
:103380001030057545608560C56001744274C37472
:1033900070BD00BFC419070807B501210648FFF733
:1033A000DBFF002305481A4619460093FFF7E2FFAA
:1033B00003B05DF804FB00BF7C4204249442042463
:1033C0002DE9F04106460D4601EB02080C46444546
:1033D000A4EB050707D03368304614F8011B1B68BF
:1033E00098470028F3D13846BDE8F08170B504460F
:1033F00008460D4629F064F823680246294620460F
:103400005B68BDE87040184709B1FFF7EFBF084699
:10341000704703681B68184770B58AB00D460023D3
:10342000012A98BF0A220AA901F8043DB5FBF2F46B
:1034300002FB14562546F3B2092E94BF30333733BE
:10344000DBB201F8013D002CF0D1FFF7DDFF0AB03F
:1034500070BD10B42AB90368C9B25DF8044B1B688B
:103460001847D2B25DF8044BFFF7D6BFFFF7F1BFA4
:10347000704713B5002000900DF0B6FE044610B161
:10348000009802B010BD01AB042269460DF08AFE1F
:1034900020460DF0ABFEF3E710B500F067F80A4CDC
:1034A000FEF71EF9FEF7A0FEFEF795FE4FF4E131A0
:1034B0000648FFF7DBFDFDF749F8FDF777F8002C2C
:1034C000FBD0AFF30080F8E700000000303C04249C
:1034D00070B505460024074EFEF734F8E3B2984273
:1034E00006D918461B010134F35EAB42F4D170BD1E
:1034F000FF20FCE71400002410B50446FEF722F874
:1035000084423BBF2401024B4FF0FF30185F10BDD7
:103510001400002410B5044611F0DAF8204610BD5E
:1035200010B5044611F0D4F8204610BD07B5074980
:10353000684611F00AF94FF47A720023DDE90001C0
:1035400024F090FD03B05DF804FB00BFB0420424FA
:1035500007B50449684611F0F8F8009803B05DF823
:1035600004FB00BFC842042415F0D6BE08B50448C9
:1035700011F0B8F80348BDE8084011F0B3B800BF37
:10358000C8420424B042042415F0D6BE38B50A4C13
:103590000A4D204611F016F92046094C2A460949E1
:1035A00015F042F9204611F018F92A46204606493E
:1035B000BDE8384015F038B9C842042400000024A2
:1035C000B0420424213504081535040870B50446BA
:1035D0000D46164600211C2228F0CAF92046324624
:1035E000294613F02DF9204670BD00002DE9F04169
:1035F00004460E46FDF7A6FF84423CD21F4D27012C
:10360000EA19D06810B11C2115F094FB2046FFF791
:1036100073FF80461C2015F059FB044600211C2234
:1036200028F0A6F94146204613F007F9EB19012EC0
:10363000DC6010D006D3022E12D0204610F06DF8B8
:10364000022103E0204610F068F800212046BDE882
:10365000F04110F06FB82046BDE8F04110F050B8CE
:10366000204610F05AF80121F0E71C21204615F001
:1036700061FB24F0A5F9BDE8F08100BF140000242F
:1036800030B589B004460D46FFF722FFC0B2FF28CF
:1036900004D02946FFF7AAFF09B030BD012D14D090
:1036A0000AD3022D1CD00222214601A8FFF78EFF6B
:1036B00001A813F061F8EFE70022214601A8FFF707
:1036C00085FF01A813F058F8E6E71C22002101A8A5
:1036D00028F04EF90022214601A813F0B3F8DBE7E9
:1036E0000122214601A8FFF771FF01A813F044F859
:1036F000D2E700002DE9F34106460F46FDF722FF11
:1037000086422AD21B4D4FEA061805EB0802D46800
:10371000ACB93046FFF7F0FE06461C2015F0D6FA8D
:1037200004461C22002128F023F9009700230122DF
:103730003146204613F09FF805EB0803DC600E4B82
:103740000E491A46D3F894008842FBD123683FB152
:10375000A1680B604FF44073536102B0BDE8F08183
:10376000E1681B04F5E71C21204615F0E3FA24F07C
:1037700027F900BF140000240064025800030080F1
:1037800030B589B005460C46FFF7A2FEC0B2FF284F
:1037900004D02146FFF7AEFF09B030BD1C22002146
:1037A00001A828F0E5F8294601A813F061F8094BB3
:1037B00009491A46D3F894008842FBD1019B2CB1E9
:1037C00003990B604FF440735361E5E71B040499C0
:1037D000F7E700BF00640258000300801EF0040FEA
:1037E0000CBFEFF30880EFF30980816911F8021C28
:1037F000002932D101B590E80F10E047BDE8005034
:103800008CE80300244B93E80600914208BF704700
:103810001A6041B91EF0100F10D1204B186820F02B
:10382000010018600AE02CE9F00F1EF0100F08BF2D
:103830002CED108A81F822E0C1F838C0906B92F824
:10384000221061F0FF0E1EF0100F08BFB0EC108ABE
:10385000B0E8F00F80F309887047114A1368994265
:10386000FAD801B552F821C00FC8E047BDE80050B2
:10387000CCF80000704701B501F0D4FBBDE8014071
:10388000EFF3098CBEE701B501F090FBBDE8014004
:10389000EFF3098CB6E70000480C002434EF00E099
:1038A000901A0708014608B530B96FF0030000F020
:1038B0001DFA6FF0030008BD132001F0ABFF30B913
:1038C0004FF0FF3000F012FA4FF0FF30F3E7002026
:1038D000F1E7000008B5EFF305832BB9EFF3108390
:1038E00013B9EFF3118333B16FF0050000F0FEF967
:1038F0006FF0050008BDDFF808C000DFFAE700BF81
:10390000A5380408EFF310832BB9EFF311800038CA
:1039100018BF012070470120704710B520B103780F
:10392000F32B01D1002906DA6FF0030102F05CFAF3
:103930006FF0030010BD00F10C0353E8000F20EA04
:10394000010243E8002404B1F7E7F3E738B5054680
:10395000A0B1846802686CB114F0030302D1C1689D
:103960000F2926D800246FF00801002002F03CFA4D
:10397000204638BDC368002BF4D11546104BD3F850
:10398000900078B100F087FC0446A0B10123F32237
:10399000A3700023656022700A4AC4E90233084B11
:1039A0005A66E5E701221021D3F8800000F0FAFB07
:1039B000EAE71546EBE76FF0040102F015FAD7E7E6
:1039C000340C0024313A0408930710B502F00104C6
:1039D00022D400F10C0384B153E8000F00EA010285
:1039E0008A4203D0BFF32F8F002005E020EA0102B6
:1039F00043E8002404B1EFE710BD53E8000F08428C
:103A000003D1BFF32F8F002005E020EA010243E835
:103A1000002404B1F1E7EFE7C06801EA00031CB13C
:103A2000994218BF0020E7E7002B08BF0020E3E71A
:103A3000F8B50546846804B9F8BD94F823202846F3
:103A4000616AA768FFF7C0FF064638B1204601F05B
:103A500062FC00223146204601F0F6FD3C46EAE7D2
:103A6000F8B50D4617461E46044620B10378F32BE1
:103A700001D1002907DA20466FF0030102F0B4F902
:103A80006FF00300F8BDFFF79FFF0028FAD186B161
:103A90003146432001F0BEFE40B1074B20465E692F
:103AA000314601F01DFC756286F823706FF001004D
:103AB000E8E76FF00200E5E7340C002470B5054636
:103AC00010B10378F32B07D028466FF0030102F002
:103AD0008BF96FF0030070BD836863B1284601F075
:103AE00011FC00226FF0020101F0AEFDA868002871
:103AF000F4D101F08FFCAB78002613F001032E7097
:103B00000FD0094B2946D3F8904024B1204600F04D
:103B1000DCFB3046DFE7D3F8800000F078FB20467E
:103B2000D9E71846D7E700BF340C00242DE9F0414F
:103B3000064620B10378F32B01D1002909DA6FF092
:103B400003056FF00301304602F04EF92846BDE848
:103B5000F08100F10C0353E8002F42EA010543E82D
:103B6000005000B1F7E7B4681CB9204601F052FCE0
:103B7000ECE794F823203046616AD4F80880FFF718
:103B800023FF074678B194F823309B0756BF656A38
:103B9000054620EA0505204601F0BDFB0022394616
:103BA000204601F051FD4446DEE70000024608B51C
:103BB000EFF3058333B100206FF0050102F014F933
:103BC000002008BDFFF79EFE0028F4D11046DFF864
:103BD00008C000DFF5E700BF4D390408024638B5DC
:103BE000EFF305834BB192B96FF003046FF003015B
:103BF000104602F0F9F8204638BDFFF783FE002892
:103C0000F1D11046DFF82CC000DF0446F3E713784B
:103C1000F32BE9D10029E7DB02F10C0353E8000F95
:103C200040EA010443E8004505B1F7E7104601F01A
:103C300041FAE0E72D3B0408024608B5EFF305839F
:103C400023B11046BDE80840FFF767BEFFF75AFEF4
:103C50000028F6D11046DFF808C000DF08BD00BF1D
:103C60001B39040838B504461D46EFF3058343B1FC
:103C70008CB920466FF0030102F0B6F86FF0030034
:103C800038BDFFF73FFE0028F2D120462B46DFF873
:103C900024C000DFF4E72378F32BEAD1002DE8D12C
:103CA0000029E6DB2046FFF78FFE002808BF6FF0F3
:103CB0000200E5E7613A0408024608B5EFF3058320
:103CC0003BB110466FF0050102F08EF86FF0050071
:103CD00008BDFFF717FE0028F3D11046DFF804C037
:103CE00000DFF5E7BD3A0408704770477047EFF30F
:103CF00010832BB9EFF31180003818BF01207047F3
:103D000001207047064BDA6A3AB1D0695B6C1BB18F
:103D10001B69984228BF184670474FF0FF30F5E7FF
:103D2000340C0024014BD868704700BF340C0024C9
:103D300008B5094B1A7A022A08D0032A0AD04FF094
:103D4000FF3002F045F84FF0FF3002E00322002080
:103D50001A7208BD0120FCE7340C002470B5464CF3
:103D6000237A012B00F0858033B14FF0FF3002F051
:103D70002FF84FF0FF3070BD404DEB68E3652B8AA4
:103D8000D5E90B61A4F85430AB683046236400F0E9
:103D9000F1F908B1C4F88060D5E90561304600F05A
:103DA000E9F908B9D4F880606667D5E9076130465B
:103DB00000F0E0F908B9D4F88060A667D5E9096198
:103DC000304600F0D7F908B9D4F88060E6676E6B2A
:103DD0003EB131683046D6E9022300F03BFAC4F820
:103DE0008460AE6B3EB131683046D6E9022300F004
:103DF00031FAC4F88860EE6B3EB131683046D6E9DE
:103E0000022300F027FAC4F88C602E6C3EB13168B2
:103E10003046D6E9022300F01DFAC4F890606E6CBB
:103E20003EB131683046D6E9022300F013FAC4F8F7
:103E30009460AE6C3EB131683046D6E9022300F0A2
:103E400009FAC4F89860EE6C3EB131683046D6E9A4
:103E5000022300F0FFF9C4F89C602D6D3DB1296884
:103E60002846D5E9022300F0F5F9C4F8A050012353
:103E7000237200207FE700BF340C0024201A0708BB
:103E800070B5254D2B7A012B07D06FF006004FF04F
:103E9000FF3401F09DFF204670BD01F01FFD10B9F9
:103EA0004FF0FF30F3E71D4AFF231D4E82F822300A
:103EB00092F82230D26863F0FF031A49C2F302225B
:103EC0007068DB4314BFB3FA83F32023C3F12003EC
:103ED000934298BF531CFE2202FA03F30F4ADBB24F
:103EE000D37701F0D1FF04460028D9D102F024F89D
:103EF000286102F00DF80C4801F004FA01F082FA92
:103F00003368DB074CBF0223032383F31488BFF31A
:103F10006F8F02232B72BEE7340C002400ED00E00B
:103F2000201A070887380408500C002408B50A4BEB
:103F30001A7A023A012A02D840B1012809D04FF07A
:103F4000FF3001F045FF4FF0FF3001E002221A720E
:103F500008BD0322FBE700BF340C002410B50F4C52
:103F6000237A022B13D101F0DBFF01236372BFF32D
:103F70004F8F0B4A5168C90003D54FF00061516063
:103F8000A37204232372BDE81040FFF7BBBE6FF09D
:103F9000070001F01DFF002010BD00BF340C0024FD
:103FA00000ED00E038B51E4C0546237A042B35D1D0
:103FB000FFF7A8FEE26AA842034694BF00F1FF3370
:103FC0002B4612B1D069C01AD061626C12B110696F
:103FD000C01A1061E06803440544E360E368AB4243
:103FE00013D102230020237201F014FA002363721C
:103FF000BFF34F8FA27A22B1A3724FF08052094BC8
:104000005A60BDE8384001F083BF0133E36001F03E
:10401000BFF9236D002BE1D09847DFE738BD00BF23
:10402000340C002400ED00E0704738B504460D461E
:10403000FFF75AFE29462046BDE8384001F08ABE07
:1040400008B5FFF7F1FFEFF3058333B16FF005001B
:1040500001F0BEFE6FF0050008BDFFF748FE002826
:10406000F4D1DFF808C000DFF6E700BF5D3D0408CB
:1040700008B5EFF3058333B16FF0050001F0A8FE3A
:104080006FF0050008BDFFF732FE0028F4D1DFF81D
:1040900008C000DFF6E700BF813E040808B5EFF373
:1040A000058333B16FF0050001F092FE6FF005005B
:1040B00008BDFFF71CFE0028F4D1DFF808C000DFC0
:1040C000F6E700BF313D0408024608B5EFF305836B
:1040D00033B16FF0050001F07BFE6FF0050008BD05
:1040E000FFF705FE0028F4D11046DFF808C000DF16
:1040F000F5E700BF2D3F040808B5EFF305832BB1AA
:104100006FF0050001F064FE002008BDFFF7EFFD31
:104110000028F5D1DFF804C000DFF6E75D3F0408B2
:10412000024608B5EFF305832BB16FF00500BDE83B
:10413000084001F04DBEFFF7DAFD0028F5D110462A
:10414000DFF804C000DF08BDA53F040808B5EFF3A1
:10415000058313B1054BD86808BDFFF7C8FD0028DB
:10416000F8D1DFF80CC000DFF6E700BF340C002404
:10417000253D040810B598B140EA010313F0070388
:104180000ED117290AD90160083910220C18426093
:1041900084600B5081684A60C3600123184610BDDB
:1041A0000023FBE7F0B580B399B132F003032CD1C3
:1041B0000F3100F1080521F007072B462D685C68D8
:1041C000E91A24F00304091B8F4204D92968002945
:1041D000F3D10846F0BD46683A4304683E44466061
:1041E000204450F8041C08388E4288BF4660586846
:1041F00018B903F108015A60EBE720F00300191821
:104200001D504A6019600831E3E70021E1E730B54D
:1042100090B1D9B1A1F1080500F108040022AC4227
:104220000BD151F8043C23F0030443681B1B43608B
:1042300042B941F8042C012030BD236822463BB12D
:104240001C46ECE751F8083C1360F4E70846F3E736
:104250001846F1E730B5C0B189B1C2B1CBB1002485
:104260000160C3604361C0E9014202FB01F41D1912
:1042700005611846013904D1A21A99500121084656
:1042800030BD851805602846F4E70146F7E711467A
:10429000F5E71946F3E7034610B5A8B100F114029B
:1042A00052E8000F10B9BFF32F8F04E0016842E815
:1042B000001404B1F4E738B1043353E8002F511C63
:1042C00043E8001404B1F8E710BD30B5F0B1C3689D
:1042D0008B421BD803698B4218D900F114031A686A
:1042E0000A60BFF35F8F53E8002F0C689442F6D149
:1042F00043E8001505B1F2E7043050E8003F5A1ECC
:1043000040E8002101B1F8E7002030BD6FF0030064
:10431000FBE7EFF310832BB9EFF31180003818BFE0
:104320000120704701207047036B30B5E3B1CD78B1
:104330000024DA78AA420FD31A46C1E901248AB1CF
:104340009160A4B16160283050E8003F5A1C40E8F9
:10435000002101B1F8E730BD5A681C46002AECD0B4
:104360001346E6E7C162ECE7C1E90133C1620163CC
:10437000E9E7D1E9013223B19A608A681AB1536042
:104380007047C262F9E703637047F8B5877804465F
:104390008FB3C5680027014605F10C062846FFF7D4
:1043A000E8FF27703046FFF790FFAB68002B48D03E
:1043B0003046FFF770FF0446002842D0284600F040
:1043C000A1FF06463A46394601F03EF9304601F073
:1043D0000FF86A6A0646816804F10C0027F0CAF9F2
:1043E000F923A7702370F368E37021462846BDE8DF
:1043F000F840FFF799BF8568AB68002BF5D05B7874
:10440000832BF2D1284600F07DFF06463A46394616
:1044100001F01AF9304600F0EBFF06466A6A04F133
:104420000C01806827F0A6F9F3680BB1E2781A70E6
:104430000023214605F10C002370BDE8F840FFF78A
:1044400044BFF8BD2DE9F0410C4617469846054695
:1044500018B10378FA2B00D141B928466FF0030157
:1044600001F0D8FC6FF00300BDE8F0818368C3B1B0
:104470005B78832B15D100F045FF06460122002111
:1044800001F0E2F8304600F0B3FF06466A6A2146C2
:10449000806827F06FF9F0680028E5D007700020E9
:1044A000E2E705F10C00FFF7F6FE064670B1214683
:1044B0006A6A0C30002427F05DF9F923314628465A
:1044C0003370B470F770FFF72FFFE8E7B8F1000F13
:1044D00010D04146932001F09DF940B1074B28468A
:1044E000596900F0FDFEEFF30983C3E902476FF05D
:1044F0000100B9E76FF00200B6E700BF340C0024FA
:104500002DE9F84F8846074638B131B1B0FA80F34B
:10451000B1FA81F10B441F2B06DC6FF00301002080
:10452000002401F077FC70E008F1030626F0030692
:104530000C3606FB00F9F2B194683CB1A30702D136
:10454000D368332B05D86FF00801E8E7D368002B58
:10455000F9D1D2F800A0D2E904533DB115F0030B14
:1045600001D1994554D96FF00901D8E7002BFAD150
:104570001CB19B460CE092461546274BD3F8A00091
:10458000D8B1FFF788FE0446A0B14FF0010B35BB50
:10459000214B00224946D86FFFF704FE0546C0B9FB
:1045A000BBF1000F06D01C4B2146D3F8A00058B138
:1045B000FFF78BFE6FF00401B1E701223421D3F83D
:1045C0008000FFF7EFFDDEE7D3F88000FFF71FFE66
:1045D000F0E74BF0020B4A46002127F0C9F9FA2315
:1045E0003246394604F10C002370002384F802B0EF
:1045F000A360C4F804A0C4E90983C4E90B332B46C3
:10460000FFF728FE044B054A1A672046BDE8F88FDD
:10461000002CE4D1B1E700BF340C00248B43040824
:1046200000F1280310B553E8002F12B9BFF32F8F04
:1046300004E0511E43E8001404B1F4E70AB9002075
:1046400010BDC06A01230028F9D0821CD2E84F1F98
:10465000C2E8443F04B1F9E711F0FF0FF0D08068E1
:10466000F1E700002DE9F0410F4615469846044653
:1046700018B10378FA2B00D141B920466FF003013D
:1046800001F0C8FB6FF00300BDE8F081FFF7C8FF41
:10469000064600283AD001462046FFF76AFE626AC5
:1046A00006F10C01384627F065F80DB1F3782B7050
:1046B000002504F10C07314638463570FFF705FE3A
:1046C000A3680BB90020DFE73846FFF7E4FD064694
:1046D0000028F7D0204600F015FE074629460122A3
:1046E00000F0B2FF384600F083FE626A0746816838
:1046F00006F10C0027F03EF8F923B570314633700F
:104700002046FB68F370FFF70FFEDBE7B8F1000F00
:1047100010D04146832001F07DF840B1074B204680
:10472000596900F0DDFDEFF30983C3E902756FF00D
:104730000100A9E76FF00200A6E700BF340C0024D7
:1047400008B5064B08219A6ED86EFFF7D9FE044BC8
:10475000D864B0FA80F04009404208BD201A07082A
:10476000340C00242DE9F04106460F4690461C46C5
:10477000EFF305834BB196B930466FF0030101F0BA
:1047800049FB6FF00300BDE8F081FFF7C2FD002890
:10479000F1D130462346DFF848C000DFF3E7337835
:1047A000FA2BE9D1002FE7D0002CE5D106F10C005F
:1047B000FFF771FD054680B1726A39460C3026F06C
:1047C000D9FFF9232846AC702B7085F80380C5E922
:1047D000017600F06FFC2046D5E76FF00200D2E7CB
:1047E00045440408F8B504460F4616461D46EFF347
:1047F000058343B18CB920466FF0030101F00AFB39
:104800006FF00300F8BDFFF784FD0028F2D12046C9
:104810002B46DFF844C000DFF4E72378FA2BEAD117
:10482000002FE8D0002DE6D12046FFF7F9FE05461F
:1048300070B100F10C01626A384626F09BFF0EB1A0
:10484000EB7833702846EC6000F034FC0020D9E7A8
:104850006FF00200D6E700BF65460408EFF310834F
:104860002BB9EFF31180003818BF012070470120E9
:104870007047000070B5A8B38468D0E900566CB1E9
:1048800014F0030302D1C2681B2A1AD800246FF067
:104890000801002001F0AEFA204670BDC368002B6D
:1048A000F4D1124BD3F8940030B901221C21D3F873
:1048B0008000FFF777FC01E0FFF7EDFC044660B1F4
:1048C0000123F522A3700023E67022706560237631
:1048D000C4E90233C4E90433DEE76FF0040101F0F8
:1048E00089FAD9E705460646DBE700BF340C002409
:1048F000284B70B55D6904460E4635B96FF0070167
:1049000001F078FA4FF0FF3070BD10B10378F52B4D
:1049100007D020466FF0030101F06CFA6FF003003E
:10492000F2E7037E53B9C0E90353EB6A436103B175
:1049300018610123EC6200202376E5E7C278D107F5
:104940000DD5C168A9420AD1FF2B06D16FF00F0126
:1049500001F050FA6FF00200D6E70133EBE7002ECA
:10496000F8D093070AD5E06895F9203090F9202017
:104970009A4203DA80F8203000F0D6FC314653200A
:1049800000F048FF18B12946204600F0A9FC6FF05E
:104990000100B9E7340C00242E4B5A6970B5044667
:1049A00032B96FF0070101F025FA4FF0FF3070BD0A
:1049B00010B10378F52B07D020466FF0030101F00A
:1049C00019FA6FF00300F2E7037E33B96FF00E01BE
:1049D00001F010FA6FF00200E9E7C168914202D0DD
:1049E0006FF00D01F4E7013BDBB2037613BB4369C3
:1049F0000BB1016919612169F1B14B6192F9213063
:104A0000D56ADDB982F82030A36883B1204600F072
:104A100079FC06462A46294600F016FEF36AC4E9E8
:104A20000365636103B11C610123F46223760020F6
:104A300000F0F0FC0020BAE7D362DFE7E9788907ED
:104A400006D5A96821B191F920108B42B8BF0B4659
:104A50006D69D6E7340C002470B5044610B10378B4
:104A6000F52B07D020466FF0030101F0C3F96FF07A
:104A7000030070BD037EBBB16369C0680BB12269DE
:104A80001A61226902B3536190F92120C36AEBB91C
:104A900090F92030934203D080F8202000F044FCAD
:104AA000A068F8B900F0B6FCA078002610F001006C
:104AB0002670DED0134B2146D3F89450DDB1284642
:104AC000FFF703FC3046D4E7C362DDE7D9788907F6
:104AD00006D5996821B191F920108A42B8BF0A46DB
:104AE0005B69D4E7204600F00DFC00226FF0020164
:104AF00000F0AAFDD4E7D3F88000FFF788FB284632
:104B0000B7E700BF340C00242DE9F041044600262D
:104B100001270CB9BDE8F081E378D4F814801B07B5
:104B200012D5A36826767BB1204600F0EBFB00226D
:104B30000546114600F088FDEB6AC4E9035663613F
:104B400003B11C61EC6227764446E2E710B4C378F7
:104B50009B071DD5C06890F92120C36ADC78A407A3
:104B600009D59C688C4208BF8C6824B194F9204018
:104B7000A242B8BF22465B69002BEFD190F92030EA
:104B8000934205D080F820205DF8044B00F0CCBBA8
:104B90005DF8044B70470000024608B5EFF305834B
:104BA00033B100206FF0050101F024F9002008BDA9
:104BB000FFF754FE0028F4D11046DFF808C000DFEC
:104BC000F5E700BF75480408024608B5EFF3058312
:104BD0003BB110466FF0050101F00CF96FF00500D4
:104BE00008BDFFF73BFE0028F3D11046DFF804C0F4
:104BF00000DFF5E7F1480408024608B5EFF3058346
:104C00003BB110466FF0050101F0F4F86FF00500BC
:104C100008BDFFF723FE0028F3D11046DFF804C0DB
:104C200000DFF5E799490408024608B5EFF305836C
:104C30003BB110466FF0050101F0DCF86FF00500A4
:104C400008BDFFF70BFE0028F3D11046DFF804C0C3
:104C500000DFF5E7594A0408EFF310832BB9EFF3AF
:104C60001180003818BF01207047012070470C30B8
:104C7000D0E85F3F13B9BFF32F8F04E05A1EC0E89E
:104C8000512F01B1F4E798B2003818BF01207047E6
:104C900030B500F10C02C189D2E85F3F994202D8D9
:104CA000BFF32F8F04E05C1CC2E8554F05B1F3E75A
:104CB000C0899BB2984294BF0020012030BD000003
:104CC000F8B515464FF6FE73421E06460F469A4249
:104CD00001D8884207D26FF003010024002001F0C0
:104CE0008FF82046F8BD7DB1AC682A6844B114F055
:104CF000030302D1E9680F2922D86FF00801ECE71D
:104D0000EB68002BF9D11546114BD3F8980080B110
:104D1000FFF7C1FA0446A8B10123F622A3700023CD
:104D200065602270A3600B4A094BA781E6819A66F1
:104D3000D7E701221021D3F88000FFF733FAE9E723
:104D40001546EAE76FF0040101F05AF8C9E700BF21
:104D5000340C0024594D0408836810B504465BB137
:104D6000FFF785FF40B1204600F0CCFA0022BDE8F5
:104D70001040114600F068BC10BD38B5054610B1B2
:104D80000378F62B07D028466FF0030101F038F8BE
:104D90006FF0030038BD84683CB100F0B3FA012223
:104DA000002100F051FC0020F4E7FFF771FF38B953
:104DB00028466FF0100101F023F86FF00200E9E7D8
:104DC0002046E7E738B50D46044610B10378F62BC8
:104DD00007D020466FF0030101F012F86FF00300D6
:104DE00038BDFFF744FF68B975B12946632000F06C
:104DF00011FD20B1064B2046596900F071FA6FF0A1
:104E00000100EDE70020EBE76FF00200E8E700BFEC
:104E1000340C002470B5054610B10378F62B07D08A
:104E200028466FF0030100F0EBFF6FF0030070BD48
:104E3000836863B1284600F065FA00226FF0020132
:104E400000F002FCA8680028F4D100F0E3FAAB7887
:104E5000002613F001032E700FD0094B2946D3F81A
:104E6000984024B12046FFF730FA3046DFE7D3F808
:104E70008000FFF7CCF92046D9E71846D7E700BFF6
:104E8000340C002410B50446EFF3058333B1002041
:104E90006FF0050100F0B4FF002010BDFFF7DCFE4D
:104EA0000028F4D12046DFF808C000DFF5E700BF96
:104EB000C14C0408024608B5EFF3058343B182B93B
:104EC00010466FF0030100F09BFF6FF0030008BD78
:104ED000FFF7C2FE0028F2D11046DFF824C000DF41
:104EE000F5E71378F62BEBD10029E9D11046FFF74F
:104EF000BEFE002814BF00206FF00200E7E700BFED
:104F0000C54D040810B50446EFF3058343B184B9D9
:104F100020466FF0030100F073FF6FF0030010BD37
:104F2000FFF79AFE0028F2D12046DFF830C000DFFC
:104F3000F5E72378F62BEBD12046FFF7A9FE20B149
:104F4000204600F0B7F80020E9E720466FF0100196
:104F500000F056FF6FF00200E1E700BF7B4D040850
:104F6000024608B5EFF305833BB110466FF005012B
:104F700000F046FF6FF0050008BDFFF76DFE00284A
:104F8000F3D11046DFF804C000DFF5E7154E040842
:104F900010B5D0E85F3F5A1C914200D80022C0E80B
:104FA000542F04B1F5E798B210BD000038B51C4C81
:104FB00000F0BCFFE3680133E36000F0E9F9002092
:104FC00000F028FA236D03B19847226C32B3A3692D
:104FD000E16B994203D0D969E36301B9DA61DA6917
:104FE000C2B9237A022B19D1656ABDB1E36B95F979
:104FF000202093F920309A4210D1284600F08BF9F6
:10500000E06B00F0A3F9284600F0FCF9236CE5639F
:10501000EB6103E0013ADA61002AE2D038BD00BF5B
:10502000340C002470B5224C04F1560504F15A06E4
:10503000B4F85410D5E85F3F13B9BFF32F8F04E0E5
:105040005A1EC5E8502F00B1F4E79BB25BB330465F
:10505000FFF79EFFE36D53F8200020B30378F13B88
:10506000082BE5D801A252F823F000BF91500408A4
:105070003150040897500408315004083150040896
:105080009B5004089F50040831500408A3500408A2
:10509000236E9847CCE7636EFBE7A36EF9E7E36EF8
:1050A000F7E7236FF5E70020BDE8704000F0B2B9E4
:1050B000340C002470B5164C0546B4F8541004F1B5
:1050C0005602D2E85F3F994202D8BFF32F8F04E027
:1050D000581CC2E8560F06B1F3E79BB2994205D8B7
:1050E00029460220BDE87040FEF79FBF04F158003A
:1050F000FFF74EFFE36D43F82050637A23B9054B69
:105100004FF080525A6070BD0123A372FBE700BFCD
:10511000340C002400ED00E0EFF310832BB9EFF323
:105120001180003818BF01207047012070470378B4
:10513000F12B00D07047C068F9E7000010B5C469D2
:10514000621CD0E904310CD103B1596142691AB132
:1051500013610023436101E0074A13630023C36125
:1051600010BD1BB1DA6959612244DA614269002A33
:10517000EED1014AD362F1E7340C002401230A4A3C
:1051800090F9201043701C32936810B51BB193F94D
:1051900020408C4205DCC0E90232906003B1D86047
:1051A00010BD1A469B68F1E7340C0024014B586986
:1051B000704700BF340C002408B500F031FEDFF862
:1051C00010C000DF4FF0FF31002000F007FEFEE7C7
:1051D000B1560408930710B502F0010422D400F17F
:1051E000280384B153E8000F00EA01028A4203D089
:1051F000BFF32F8F002005E020EA010243E80024DE
:1052000004B1EFE710BD53E8000F084203D1BFF32C
:105210002F8F002005E020EA010243E8002404B1BA
:10522000F1E7EFE7806A01EA00031CB1994218BF79
:105230000020E7E7002B08BF0020E3E7084A002131
:10524000136B10B53BB94FF0FF34C0E90431C461B2
:1052500021B1086110BD19461B69F3E71063F9E736
:10526000340C0024002310B50380044683789A0789
:1052700008D513F0100F016B0E4B0FD0D3F884003C
:10528000FFF723F8A378DB0712D50A4B2146D3F8A2
:10529000880038B1BDE81040FFF717B8586FFEF727
:1052A000B6FFEFE7D3F88000BDE81040FEF7AFBFD0
:1052B00010BD00BF340C0024C2780346D20701D4CD
:1052C000FFF7D0BF042242700022C260034A516B34
:1052D000816001B1C8605363704700BF340C002483
:1052E00091F92020836810B51BB193F920409442B6
:1052F00005DAC1E90230816003B1D96010BD1846FA
:105300009B68F1E783689A68826002B1D0600022EE
:105310001846DA607047C2682AB18368936003B1A7
:10532000DA600023C360704710B50146044664B1DB
:105330002378F12B07D00846FFF7EDFF2046BDE8A4
:105340001040FFF7CDBFE468F1E710BD012301462F
:1053500043700148FFF7C4BF500C002470B50B4DDB
:105360002E7A022E10D16C6A74B1696994F92020EA
:1053700091F920309A4207D12046FFF7CCFF08462A
:10538000FFF7E4FF6670AC61002070BD340C0024B0
:1053900038B5164DEC6A44B3E369013BE36123BBC6
:1053A0006378732B06D009D8532B0BD003F0DF039F
:1053B000432B0DD12046FFF7BAFE09E003F0EF03BF
:1053C000832BF6E72046FFF7B2FE2146FFF7BEFB30
:1053D0002046FFF7A0FFFFF7B9FF246924B1E36976
:1053E000002BDDD000236361EC6238BD340C002457
:1053F00090F82230826B13F0100F0CBF6020202039
:105400001044704702234370014B9861704700BFFE
:10541000340C002470B5124D04462E7A696990B997
:10542000022E0FD16C6A6CB194F9202091F92030D2
:105430009A4207DD2046FFF76EFF0846FFF79EFE03
:105440006670AC6170BD022E05D190F9202091F9F3
:1054500020309A42F1DC2046BDE87040FFF776BF6D
:10546000340C00242DE9F04F85B08146029128B913
:105470006FF00301002400F0B1FCBCE0002A45D02D
:10548000966846B1B40702D1D368432B06D86FF0B3
:1054900008010020EEE7D368002BF8D19769D2E924
:1054A00004453CB1600702D1002D40F0B2806FF09E
:1054B0000A01EEE72FB17B1E372B03D96FF00B01EA
:1054C000E7E71827002D40F0A880D2E900A3019358
:1054D0004EBB574BD3F88800F0B1FEF7DCFE064612
:1054E00000283AD04FF00108002C44D1DFF840B139
:1054F000E5B9504ADBF88400556DB8B1FEF7CBFE34
:105500000246E0B148F01008344623E092461446C3
:10551000182715460192DCE701224421D3F88000C8
:10552000FEF740FEDBE74FF00008DDE722462946A4
:10553000DBF87400FEF736FE02460028E4D1B8F12D
:10554000000F16D0DBF8882052B110463146FEF726
:10555000BCFE002248F002087CB96FF0040198E715
:105560003146DBF880000392FEF751FE039A1446A1
:10557000F0E74246EEE72246344640F2F1137FB2AE
:10558000FD2184F802802380019BC4F804A0E3700D
:10559000002384F8207084F8217061846563C4E975
:1055A0000233C4E90433C4E90633C4E90933C4E966
:1055B0000B32A5F140031344C4E90E391E4B1360AE
:1055C0001C4B1B685B071AD4A36B00201A4603F11F
:1055D000340143F8040B9942FBD1184B2046C2E931
:1055E0000D394FF08073D363029B1362104B144A42
:1055F0001A66FFF70FFF204605B0BDE8F08FAD0833
:105600004FF0CC33113D002DDED0013D42F8043F78
:10561000F9E7002F7FF44FAF182769077FF447AFF2
:10562000A5F14801074B99427FF64FAF3FE700BF16
:10563000340C0024201A0708A52E5AE2B951040898
:105640006D560408B7FFFF7F38B504461546FFF7CF
:10565000CFFE01602046FFF771FD1DB1BDE8384067
:10566000FFF7D8BEBDE83840FFF770BE10B54378ED
:105670000446332B0CD1416A90F82320FFF7AAFD92
:10568000014628B120460022BDE81040FFF7DCBFEC
:1056900010BD10B50446806918B100221146FFF70D
:1056A000D3FF6378232B02BFA36800229A6110BD49
:1056B00070B50F4C267A022E18D1636AB3B16569B2
:1056C000E86AFFF721FA2846FFF7E3FF04F11C0020
:1056D000FFF718FE4670A061EFF30983AB63002368
:1056E00028466361BDE87040FFF7E6BD70BD00BFAE
:1056F000340C002410B5044610B10378F12B07D008
:1057000020466FF0030100F069FB6FF0030010BD4D
:10571000437803F00F03022B1ED0032B2BD0012B59
:105720002ED1FFF7F8FDE06AFFF7EEF92046FFF70C
:10573000B0FF6178022926D11548FFF7E3FD154B2C
:1057400041709861EFF30982A26300225A612046FA
:10575000FFF7B2FD0020DAE70E4B1A7A022A02D1D7
:105760005B6A002BDFD16FF00201204600F036FBB0
:105770006FF00200CBE7FFF7CEFDFFF7DFFCD2E7CB
:105780006FF00201F2E70020FFF744FEDFE700BF01
:10579000500C0024340C002470B5044620B103786A
:1057A000F12B01D1002908DA6FF003056FF0030136
:1057B0002046FEF79AFA284670BD4378042B06D19E
:1057C0006FF002016FF00205FEF78FFAF3E700F1C8
:1057D000280353E8002F42EA010543E8005606B1CA
:1057E000F7E74378332BE6D1416A90F82320FFF79F
:1057F000F1FC01460028DED094F8233001229B07FB
:1058000056BF656A054620EA05052046FFF71CFFDE
:10581000D1E7000038B5174C0246237A022B27D176
:10582000606A60B160694B1C427009D1FFF706FDE8
:105830001148FFF767FD02234370A061012038BDC6
:10584000E36A002213B1DD69A9420BD2C161C0E94C
:1058500004325AB11061002BEAD0DA695861511A4A
:10586000D961E5E71A46491B1B69EBE7E062F2E7FD
:105870000020E4E7340C0024500C0024F8B5164B4B
:1058800005460F4616465C693CB920466FF0070195
:10589000FEF72BFA4FF0FF30F8BD002807DA20465C
:1058A0006FF00301FEF721FA6FF00300F4E70A46F8
:1058B00001462046FFF78EFC0028EDD14EB131465F
:1058C0003320656284F82370FFF7A4FF6FF00100B6
:1058D000E2E76FF00200DFE7340C002438B50D4C2E
:1058E00000210D48A26DFFF7BDFD0C4D636EA8624F
:1058F0005BB1984758B9E26DE96C206EFFF7B2FDD5
:10590000A864003818BF012038BD0120FCE7002042
:10591000FAE700BF201A07084D5D0408340C002484
:1059200010B50446EFF3058333B100206FF0050195
:1059300000F054FA002010BDFFF7EEFB0028F4D170
:105940002046DFF808C000DFF5E700BF6554040813
:1059500008B5EFF3058313B1054B586908BDFFF790
:10596000DBFB0028F8D1DFF80CC000DFF6E700BF52
:10597000340C0024AD51040808B5EFF305833BB1A6
:1059800000206FF0050100F029FA6FF0050008BD56
:10599000FFF7C2FB0028F3D1DFF804C000DFF6E711
:1059A0005D53040810B5044600F046FAEFF3058392
:1059B0003BB120466FF0050100F010FA6FF00500D2
:1059C00010BDFFF7A9FB0028F3D12046DFF804C083
:1059D00000DFF5E7F5560408024638B5EFF3058316
:1059E0004BB192B96FF003046FF003011046FEF75C
:1059F0007CF9204638BDFFF78FFB0028F1D1104617
:105A0000DFF844C000DF0446F3E71378F12BE9D157
:105A10000029E7DB5378042B07D16FF00201104611
:105A20006FF00204FEF761F9E3E702F1280353E89F
:105A3000000F40EA010443E8004505B1F7E71046CE
:105A4000FFF738FBD5E700BF9957040810B50446A7
:105A5000EFF305833BB100206FF00501FEF745F938
:105A60006FF0050010BDFFF757FB0028F3D120466B
:105A7000DFF804C000DFF5E77D5804080C4A30B5B4
:105A8000536C002413B11D698D420AD90161C0E92C
:105A900002431BB11D699860691A19612CB1E0605D
:105AA00030BD1C46491BDB68ECE75064F8E700BFDB
:105AB000340C00242DE9F041184D6C6C54B323696B
:105AC00001276E69013B2361236913BBE3680BB1B6
:105AD000A2689A606B64002304F11801E86C1A460E
