:020000040804EE
:10000000000008242933060875330608457D0508D5
:100010004B7D0508517D0508577D0508000000004F
:10002000000000000000000000000000E53B0408A4
:1000300075330608000000007F3C04088F3C04086C
:1000400075330608753306087533060875330608D8
:1000500075330608753306087533060875330608C8
:1000600075330608753306087533060875330608B8
:1000700075330608753306087533060875330608A8
:1000800075330608753306087533060859400608A7
:10009000694006086540060875400608753306087D
:1000A0007533060875330608753306087533060878
:1000B0007533060875330608753306087533060868
:1000C0007533060875330608753306087533060858
:1000D0007533060875330608753306087533060848
:1000E00075330608753306080000000075330608EE
:1000F0007533060875330608753306087533060828
:10010000753306083130060875330608753306085E
:100110007533060875330608753306087533060807
:1001200075330608753306087533060875330608F7
:1001300075330608D36B0408753306087533060853
:100140007533060875330608000000000000000043
:1001500075330608753306087533060875330608C7
:1001600075330608753306087533060875330608B7
:10017000753306087533060875330608000000005D
:100180007533060875330608753306087533060897
:100190007533060875330608753306087533060887
:1001A0007533060875330608753306087533060877
:1001B0007533060875330608753306087533060867
:1001C0007533060875330608753306087533060857
:1001D0007533060875330608753306087533060847
:1001E0007533060875330608753306087533060837
:1001F0007533060875330608753306087533060827
:100200007533060875330608753306087533060816
:100210007533060875330608753306087533060806
:1002200075330608753306087533060875330608F6
:100230007533060825330608753306087533060836
:100240007533060875330608B915040875330608B2
:1002500075330608753306087533060875330608C6
:1002600075330608753306087533060875330608B6
:1002700075330608753306087533060875330608A6
:10028000753306087533060875330608000000004C
:10029000753306087533060810B5054C237833B955
:1002A000044B13B10448AFF300800123237010BD49
:1002B00000190024000000008C70070808B5034BEB
:1002C0001BB103490348AFF3008008BD00000000E4
:1002D000041900248C700708154B002B08BF134B22
:1002E0009D46A3F5803A00218B460F461348144AD9
:1002F000121A2BF045FF0F4B002B00D098470E4BE6
:10030000002B00D098470020002104000D000D486C
:10031000002802D00C4818F08DFC2BF02DFA20009C
:10032000290005F073FE18F099FE00BF00000800D8
:100330000000082400000000695F04080019002480
:10034000301D0124358C0508000000000020704796
:100350000020704700207047002070470020704741
:100360007047036853F8683C184470477047036847
:1003700053F8743C18447047C3680BB19B68184726
:10038000704738B50D460431044611F025FAEB6884
:100390002046C4F8843053F8843C2A692344C3F8C7
:1003A00084202B68236053F8843C6A69E250AB696F
:1003B000C4F8843038BD00000B4B10B50360134601
:1003C0000A460A49044611F007FA04E0204611F0F3
:1003D00055FE27F0F9FC064B2046236003F5807399
:1003E000C4F8843010BD00BFA42F07080C1A0708FA
:1003F000A81A07080000000007EE901A9FED4E6B48
:10040000B7EEE77AF8B527EE067B06EE903A05469A
:100410002DED068BB7EEE69A06EE902AB6EE008B2F
:100420009DF83440B7EEE66A0C9EA7EE069B51ECB1
:10043000190B29F07BFAB7EE006B07EE905A452CAA
:1004400041EC150BB8EEE77B35EE066B27EE067B2D
:1004500027EE087BB7EEC7AB22D04F2C40D0422C02
:100460005FD10124B4425CDC013407EE904AB8EE5F
:10047000E77B27EE097B51EC170B29F057FA95FB28
:10048000F4F306EE103AB8EEC66B41EC170B26EE0D
:10049000076BB7EECA7AA6EE087BB7EEC7ABE1E70B
:1004A0000127B7423DDC7C00013707EE904AB8EEE9
:1004B000E77B27EE097B51EC170B29F037FA95FB08
:1004C000F4F306EE103AB8EEC66B41EC170B26EECD
:1004D000076BB7EECA7AA6EE087BB7EEC7ABE0E7CC
:1004E0000127B7421DDC7C000137013407EE904A3A
:1004F000B8EEE77B27EE097B51EC170B29F016FAD3
:1005000095FBF4F306EE103AB8EEC66B41EC170B10
:1005100026EE076BB7EECA7AA6EE087BB7EEC7AB3E
:10052000DFE7BCEECA7ABDEC068B17EE103A98B244
:10053000BDE8F84003F025B8182D4454FB211940BC
:1005400007EE901A90ED025A90ED006AB7EEE74A76
:10055000B5EE405A26EE066A9FED157BF1EE10FAD5
:10056000B7EEC66A24EE074B90ED017AB7EEC77A74
:1005700008B527EE047B10D1A7EE076B51EC160BE4
:1005800029F02AFA41EC170BFCEEC77B17EE903AE4
:1005900098B2BDE8084002F0F4BFB7EEC55AB7EE16
:1005A000003B25EE045B83EE054B37EE447BE3E72F
:1005B000182D4454FB21194007EE901A90ED026A61
:1005C00090ED005AB7EEE74AB5EE406AB7EEC55A6D
:1005D0009FED137BF1EE10FA24EE074B90ED017ABC
:1005E000B7EEC77A08B527EE047B0CD187EE057B02
:1005F00051EC170B29F090F841EC170BF7EEC77B85
:1006000017EE900A08BDB7EEC66AB7EE003B26EEBD
:10061000046B83EE064B37EE447BE7E7AFF30080D5
:10062000182D4454FB21194070B5104C41EA0011BB
:100630001646B4F90000CDB2002803DB0021C0B299
:1006400003F05CFA29460A4800F06CFE314608487F
:1006500000F07BFEB4F90000002805DB0121C0B2E8
:10066000BDE8704003F04ABA70BD00BF3A000024F4
:10067000C424002437B5154C4FF4E131134801F080
:10068000DDFC204601F022FB0028FAD010480024AF
:1006900000F0C1FE0F4B01258DF80440009302AB22
:1006A0008DF805500A4813E9060000F094FE0A4B45
:1006B0002946187803F09EF9084B21460E201A8827
:1006C00003B0BDE83040FFF7AFBF00BF9035002456
:1006D000C4240024C00E16023A0000243400002472
:1006E0002DE9F04FAB4CDFF8F892D4F800B0DFF80A
:1006F000F4A248465946A84DA84FA94EDFF8E88213
:100700002DED048B87B09FEDA79AFFF755FF594653
:1007100008EE900A5046FFF74FFF594608EE100AC0
:10072000A148FFF749FF3B7878EE896A09EE900A05
:10073000B8F80000594601933378DFED9C8A0093A6
:1007400016EE903A95ED007BF7EEC77B17EE902AF8
:10075000FFF752FE7B7878EE286A0290B8F8000026
:10076000019373789FED928A009316EE903A216878
:1007700095ED007BF7EEC77B17EE902AFFF73CFE66
:10078000BB7879EE886A0390B8F800000193B378DB
:1007900095ED007B009316EE903A2168F7EEC77B4B
:1007A00017EE902AFFF728FE21680490B8F800B0F1
:1007B000DDE902321344034448469BB20593FFF738
:1007C000BFFE3B7895ED007B01933378F7EEC77B56
:1007D000009319EE103A216817EE902ABBFBF0F057
:1007E000FFF70AFE216881465046B8F800B0FFF7CF
:1007F000A7FE7B7895ED007B01937378F7EEC77BBE
:10080000009318EE903A216817EE902ABBFBF0F0A7
:10081000FFF7F2FD216882466348B8F80080FFF7D1
:100820008FFEBB78634F0193B37809EB0A0695ED11
:10083000007B009318EE103A2168F7EEC77B5E4C00
:10084000B8FBF0F017EE902AFFF7D6FD029A80462B
:10085000064400210320FFF7E7FE039A012103204D
:10086000FFF7E2FE049A02210320FFF7DDFE0321D9
:10087000059AB6B20846FFF7D7FE4A460421032080
:10088000FFF7D2FE524605210320FFF7CDFE424678
:1008900006210320FFF7C8FE324607210320FFF799
:1008A000C3FE4649204602F080FF0A2202992046F4
:1008B00002F0C7FF3946204602F077FF4049204644
:1008C00002F073FF0A220399204602F0BAFF39466C
:1008D000204602F06AFF3B49204602F066FF0A22EA
:1008E0000499204602F0ADFF3946204602F05DFF34
:1008F0003549204602F059FF0A220599204602F0A8
:10090000A0FF3946204602F050FF3049204602F051
:100910004CFF0A224946204602F093FF3946204602
:1009200002F043FF2A49204602F03FFF0A225146C7
:10093000204602F086FF3946204602F036FF254960
:10094000204602F032FF0A224146204602F079FF9B
:100950003946204602F029FF1F49204602F025FFB4
:100960000A223146204602F06EFF1C4BB7EE005BB8
:1009700093ED006AB7EEC66A85EE067B95ED006BD7
:1009800037EE067B85ED007B07B0BDEC048BBDE840
:10099000F08F00BF2C00002488260024360000249D
:1009A000802600240000000020000024920A064057
:1009B000920A8640DA3C070890350024241C070878
:1009C0002C1C0708341C07083C1C0708441C07089B
:1009D0004C1C0708541C07085C1C07083000002446
:1009E00008000024140000240400002408B54FF47B
:1009F000807200212BF0C4FB0022C0F80021C0F857
:100A00000421C0F8082108BD10B50446006808B1EB
:100A100018F0A7FB204610BD0B4B10B5044640F85C
:100A2000643BFFF7F1FF04F14C00FFF7EDFF04F129
:100A30003400FFF7E9FF04F11C00FFF7E5FF201D7C
:100A4000FFF7E2FF204610BD081707082DE9F04127
:100A5000002205461E4B0446114645F8043B284635
:100A600011F01CFD04F11C0600223046114611F065
:100A700015FD04F1340700223846114611F00EFD31
:100A800004F14C0800224046114611F007FD0022F7
:100A900004F16400114611F001FD10E04046FFF73B
:100AA000B3FF3846FFF7B0FF3046FFF7ADFF2846EB
:100AB000FFF7AAFF27F088F9F3E7F5E7F7E7002348
:100AC000204684F87C30C4F88030BDE8F08100BF57
:100AD0000817070810B50446FFF74EFC204610BD66
:100AE00038B504460D4689B91368236085B9526844
:100AF00053F8843CE25004F17400FFF7EBFFAB07BE
:100B000002D5204611F0BAFA204638BD024BECE778
:100B1000014A0023EEE700BF642E07080A460021C1
:100B2000FFF7DEBF00220221FFF7DABFD0F800C0D6
:100B3000ACF1240CDCF800C06044F3E710B50446C7
:100B4000FFF7F0FF8421204618F0F8FA204610BD88
:100B5000D0F800C0ACF1240CDCF800C06044EDE734
:100B600070B504460D4609BB1368236005BB516987
:100B700053F8843CE150F5B99169234643F8841F4A
:100B8000DDB902F10C010868C4F884004E6850F821
:100B9000841C5E509DB9111D2046FFF7BFFFAB07B7
:100BA00002D5204611F06AFA204670BD054BDCE7FD
:100BB00004490023DEE70449DFE70449E3E7044989
:100BC000EAE700BFA81A0708A81B0708141A0708B5
:100BD0000C1A070800220221FFF7C2BFA0F184000F
:100BE000F8E7D0F800C0ACF1240CDCF800C0604499
:100BF000F0E710B50446FFF7EDFF8821204618F016
:100C00009DFA204610BDA0F18400F2E7D0F800C0A4
:100C1000ACF1240CDCF800C06044EAE70A4600218D
:100C2000FFF79EBF38B5094B00F54365044600F653
:100C3000BC4040F88C3CFFF7CDFF2846FFF7ECFEA8
:100C400004F53C6000F09EFC204638BD501D0708AE
:100C50002DE9F843044677227821002500F062FA56
:100C60001622172104F50F7000F05CFA7B227C211C
:100C700004F58F6000F056FA4FF6FF76DFF86881D2
:100C800020274FF47A798923C4F8B85604F2DC603F
:100C9000C4F8B486C4F8C876C4F8CC56C4F8D056A4
:100CA000A4F8D456A4F8D636A4F8D866A4F8DA6620
:100CB000C4F8BC96FFF79AFE092384F8EC5704F6B3
:100CC0001800A4F810380A23C4F8F457C4F8F087C1
:100CD000C4F80478C4F80858C4F80C58A4F81238BA
:100CE000A4F81468A4F81668C4F8F897FFF77EFE15
:100CF0006E2384F8285904F65410A4F84C3969235B
:100D0000C4F83059C4F82C89C4F84079C4F844595F
:100D1000C4F84859A4F84E39A4F85069A4F85269A7
:100D2000C4F83499FFF762FE982384F8645A04F5F6
:100D30002960A4F8883A9923C4F86C5AC4F8688AE0
:100D400004F53C68C4F87C7A04F6BC47C4F8805AC1
:100D5000C4F8845AA4F88A3AA4F88C6AA4F88E6A73
:100D600004F54366C4F8709AFFF740FE84F8A05B70
:100D700081232322222104F6A43000F071FB4FF0DE
:100D8000FF3342221221404600F0A8FB3046FFF715
:100D90005DFE144B84F8B85CC4F8303C1D4606F088
:100DA00093F8814610F082FA024649463846FFF72A
:100DB00003FBC4F8447D04F5556000F04FF80DE0E6
:100DC0003046FFF729FE404600F0DCFB26F0FCFF32
:100DD000C4F8305C3846FFF7FDFEF1E72046BDE879
:100DE000F88300BF501D0708CC1D070810B5054C3F
:100DF0002046FFF72DFF2046034A0449BDE8104076
:100E000017F016BF2019002400000024250C040848
:100E100010B50446002018F007FB0129A06008BFA8
:100E2000002820462CBF01230023237310BD82B06D
:100E300008B502A981E80C009DF814100023049A5B
:100E400011B1003243F101031946C0E902231046F3
:100E500018F0B2FABDE8084002B0704730B5034A56
:100E6000002400250260C0E9024530BD6C1C070863
:100E70000020704770470368C9B21B6818474900D3
:100E80000023C161C0F82C327047036801211B6B3D
:100E9000184710B403689C6B0123A4465DF8044B0B
:100EA0006047D0F82C32B3F5807F1FBF5A1CC0F8C2
:100EB0002C22C01880F82C1114BF0120002070478C
:100EC000D0F8280170477047C0F830127047C0F85A
:100ED00034127047D0F82831A3B1D0F828318BB143
:100EE000D0F82431D0F824210344013293F8203083
:100EF000D2B2C0F82421D0F82821013AC0F8282124
:100F0000184670474FF0FF307047D0F828312BB1AA
:100F1000D0F82431184490F8200070474FF0FF308B
:100F2000704738B5036804465B6A9847FC2018F0A0
:100F3000D1F8B4F91A20B4F91810054612F020FFC0
:100F4000656138BDFC21284618F0F8F826F03CFF12
:100F50000B6803604B6843608B688360704738B5EB
:100F6000D0F82C321446054600F596701A44184401
:100F7000B2F5807F88BFC3F5807422462BF002F85B
:100F8000D5F82C3220462344C5F82C3238BD38B56C
:100F9000044640690D4608B112F00BFE206920B1ED
:100FA0002946BDE8384012F043BF38BD07B581F08F
:100FB000010100F596720091D0F82C32C1694069A8
:100FC00012F00AFE002814BF0220002003B05DF8D2
:100FD00004FB10B50446406920B10368DB689847FC
:100FE0000023636123699BB1D4F8380218F0EDFB4C
:100FF000D4F8380218F04DFCD4F8380210B1036868
:101000005B6898479C21206918F098F800232361B9
:1010100010BD70B5C2B083F001030446154602AEA0
:101020000093490013464069324612F0F4FDC8B9F6
:10103000A84218D0D4F82831B3F5807F10D0D4F866
:101040002031325C234483F82020D4F8203101334E
:10105000DBB2C4F82031D4F828310133C4F8283188
:101060000130E5E70025284642B070BD30B50446A2
:10107000BDB00025206912F0E4FE0328FAD8DFE8AD
:1010800000F04A021212D4F8343203B19847D4F86F
:101090002C22002AEED004F59671206912F0D5FEBC
:1010A000C4F82C52E6E7C4F82051F022C4F82451C9
:1010B0006946C4F82851206912F0C5FE0022824218
:1010C0001DDAD4F82831B3F5807F18D0D4F8283150
:1010D000B3F5807F11D0D4F820311DF802102344DD
:1010E00083F82010D4F820310133DBB2C4F820316A
:1010F000D4F828310133C4F828310132DFE7D4F8BD
:101100002831002BB6DDD4F83032002BB2D0D4F821
:1011100028019847AEE702F03BFCABE70022C26033
:101120007047000038B500254FF47A7304460183F8
:10113000428329464FF48072C0E901530A4BC0E94B
:101140000455036020302BF01BF8C4F82051C4F87C
:101150002C522046C4F82451C4F83052C4F8285107
:10116000C4F8345238BD00BF941C070810B50446BB
:101170000021FFF7D3FF204610BD10B50446FFF74E
:10118000FBF8204610BD10B4D0E9003409686210A5
:10119000E4075DF8044B01EB020044BF8A58D358C2
:1011A00018470146043008B5FFF7EDFF08BD000001
:1011B000034A0346C26007C983E80700704700BFBF
:1011C000741C070810B586B004460391684606A94A
:1011D00080E80C0001E90C00204603A9FFF7E8FFB6
:1011E000204606B010BD37B56C46054684E80C00B5
:1011F00094E80C00FFF7E6FF284603B030BD00007E
:101200002DE9F0410368054688B00E465B6A9847B1
:101210009C2017F05FFFB5F91A20B5F918100446A5
:1012200012F0ECFD710020462C6112F003FEBC2090
:1012300017F050FF04460646234B04F1400746F8DA
:10124000043B3046FFF792FF0021384618F022FA9F
:1012500004F15408404618F0BBF91C4B4FF40062EF
:10126000182120460093002318F0A4FA184B2946B1
:1012700004A8C5F8384202930023039302AB0CCBB9
:10128000FFF7B1FF04A9204618F03EFB10E04046EE
:1012900018F0DEF9384618F03CFA3046FFF76DFFDB
:1012A000BC21204617F04AFF26F08EFDF2E7F4E756
:1012B00004A8FFF762FF08B0BDE8F0819C21F0E7C9
:1012C00004A8FFF75AFFEFE7EC420708801C070865
:1012D0006D10040808B5FFF764FF08BD08B5FFF7F7
:1012E000F9FF08BD10B50B2002F00AFB04460C20E4
:1012F00002F006FB214602460748FFF713FF1622BD
:1013000017210648FFF70EFF7B227C210448BDE829
:101310001040FFF707BF00BF90260024CC28002410
:10132000082B002410B5C36886B001228DF80F1079
:101330000DF10F01186803680092DC680DF11703C6
:10134000A0479DF8170006B010BDF8B5427A0446D4
:1013500003680E46CFB29B680D0A62B939469847BA
:10136000236860F3070629469B682046984760F388
:101370000F26B0B2F8BD29469847236860F30F26C0
:1013800039469B682046984760F30706F1E7C36833
:1013900013B5186803680092DC680B46A04702B0DA
:1013A00010BD704770477047C36810B5044653B10D
:1013B000186840B103685B6898470421E06817F03B
:1013C000BDFE0023E36010BD10B50446182117F0E0
:1013D000B5FE204610BD436873B599426D4604467C
:1013E0000E4685E8060004D1BDF8042003899A4220
:1013F0000FD0E36808219DF80420186812F067FFF9
:10140000E3683146186812F080FF0098AB8860608E
:10141000238102B070BD73B5C568044625B90420A8
:1014200017F058FEE0600560E3681B6883B94FF071
:10143000FF36742017F04EFEB4F91430B4F91020C2
:101440000546B4F91210009613F046F8E3681D60E3
:1014500002B070BD7421284617F070FE26F0B4FC6F
:1014600070B5064D01260182056000254672456073
:101470000572C5604282838270BD00BFEC1C070804
:1014800038B50A2002F03CFA0546082002F038FA86
:101490000446092002F034FA094B0A4A01219882D5
:1014A00018461A60002259725A601A72DA601D8258
:1014B0005C82054A0549BDE8384017F0B9BB00BF5A
:1014C000442D0024EC1C070800000024A713040886
:1014D000303000F0D4B8303000F0AAB810B504466F
:1014E0000B48C4E902234FF0FF33C4E90433C4E9D5
:1014F00006330423C4E90001236204F1300000F044
:1015000089F8002320462366024B1C6010BD00BFF3
:10151000281D0708D02D002410B50446FEF72CFF27
:10152000204610BD064B10B504460360806A08B122
:1015300016F0E4F8201DFFF7EFFF204610BD00BFB6
:101540009830070810B50446FFF7ECFFFC21204651
:1015500017F0F4FD204610BD10B50023064C1A46C6
:1015600019462046FFF7BAFF2046044A0449BDE861
:10157000104017F05DBB00BF602D00240000002468
:1015800085150408054B002210B5044640F8303B91
:10159000034B1A6000F018F8204610BD281D0708FC
:1015A000D02D002410B50446FFF7ECFF7021204633
:1015B00017F0C4FD204610BD024BD3F884001AF08A
:1015C00029BC00BFD42D0024704710B5044630213B
:1015D00017F0B4FD204610BD10B5044681690069BE
:1015E0002AF084FE2061D4E905012AF07FFEA26979
:1015F0006061002120692AF0C3FDA26900216069B1
:101600002AF0BEFD0023E362E36123626362A3620A
:1016100010BD0000054B10B503604FF40073044685
:101620008361FFF7D9FF204610BD00BF401D0708AA
:1016300038B504460846E36A063304EB83035D6865
:10164000E36A083304EB83035B68ED1A954228BF15
:10165000154695B1E26AE36A083304EB83035968DF
:10166000131D2A4654F8233019442AF08BFCE36AF0
:1016700004EB8304636A2B446362284638BDC36A63
:10168000063300EB83035A68C36A083300EB830018
:101690004068101A7047D0F8140118B1036853F865
:1016A000843C184470470000054B10B5044640F8D0
:1016B0008C3BFFF78FFA2046FFF7AEF9204610BDAE
:1016C000501D070838B5124C2046FFF7BFF9114BE3
:1016D0002360002384F8883005F0F6FB05460FF000
:1016E000E5FD0246294604F18C00FEF765FE04F193
:1016F0008C00094A0949C4F814012046BDE8384065
:1017000017F096BA0248FFF787F926F05DFB00BF95
:101710006C2E0024501D070800000024A9160408A0
:101720000C307047CB68C3600BB15B6818477047DB
:10173000002070470020704730B5A1F1100400254B
:1017400000F00F02CD7302390009D3B2092ACCBFD1
:10175000373330330B748C42F2D130BD2DE9FF4763
:101760000024061D05468A46904699460094234665
:101770004FF0FF32B1213046CDE9014412F0CAFCEE
:1017800029682846DDE90C23CDE9002342464F694C
:101790004B465146B847009423464FF0FF32C121D3
:1017A0003046CDE9014412F0B5FC204604B0BDE856
:1017B000F0872DE9D04F9B460368924604469B6A0A
:1017C000DDE90889984702460B465046594626F0FF
:1017D0009DFE134302D00020BDE8D08F2368204631
:1017E0009B6A984702460B464046494626F08EFEC5
:1017F0001343F0D11AEB0806236820464BEB090788
:101800009B6B9847B94208BFB0422CBF0120002013
:10181000E2E701682DE9F04114461D46096B0646D2
:10182000884702460B462046294626F06FFE1343A2
:1018300002D00020BDE8F081DDE906233046A7187C
:1018400045EB030817F1FF323368196B48F1FF339A
:10185000884702460B463846414626F057FE13435A
:10186000E7D1336830469B6B9847414508BFB84283
:101870002CBF01200020DDE72DE9D04F9B460368F7
:10188000924604465B6ADDE90889984702460B46A2
:101890005046594626F03AFE134302D00020BDE8D8
:1018A000D08F236820465B6A984702460B46404625
:1018B000494626F02BFE1343F0D11AEB08062368A5
:1018C00020464BEB09079B6B9847B94208BFB042D3
:1018D0002CBF01200020E2E7C2207047244830B529
:1018E000037887B0BFF35B8F13F001041CD117F0AE
:1018F000AFF9C8B11F4B66223B211F48CDE9034316
:101900005A23CDE901323D233C220093572319F09D
:10191000C5F9194C194B1648236017F0BBF9184A42
:101920002046184917F084F9134819F0F1FB164DB9
:101930001A22002329461048CDE900230023002263
:10194000FFF70CFF2B780446B52B04D10F4B012277
:101950001D600F4B1A70084819F036FAB4FA84F07B
:10196000400907B030BD024817F09CFB26F02CFA66
:10197000AC2F0024005A6202B82F00245C1D070817
:1019800000000024451B0408C03100243C00002452
:10199000B02F00240D4B187830B10D4B1B689A887E
:1019A00040F202439A420FD80A4B9B6D03F4604306
:1019B000B3F5004F07D0064B1B685878172894BF23
:1019C0000020012070470020704700BFB02F002486
:1019D0003C0000240044025810B504461AF034F8C4
:1019E0002146FFF7A9FE1AF035F804F11001FFF7C0
:1019F000A3FE1AF035F804F12001FFF79DFE302018
:101A000010BD000008B54DF65972002107481FF0BF
:101A100073FCBFF34F8F0649064BCA6802F4E062BD
:101A20001343CB60BFF34F8F00BFFDE7882F002427
:101A300000ED00E00400FA0500B5C3B0162217213E
:101A400003A812F09DF94FF4A17302AA1021ADF87A
:101A50000830002303A80093022312F0BDF803A866
:101A6000FFF760FD43B05DF804FB03A8FFF75AFDE4
:101A700026F0AAF91D4B01211D4AA62070B51A6057
:101A800002F002F80121A62002F07EF8FFF7D4FF51
:101A9000184B43F2D2021A60FFF720FF164B1B7857
:101AA00033B1164B1B689A8840F209439A421BD8FF
:101AB000134B9B6D03F46043B3F5004F14D001F05A
:101AC00039FF104D044601F047FF064601F044FF80
:101AD000801BA842FAD901F02DFF001B642803D017
:101AE000BDE8704023F0BCBB70BD00BF882F002450
:101AF0000040005800400052B02F00243C00002459
:101B0000004402589F86010038B5074B054604463D
:101B100045F8BC3B19F058F9284617F099FD201DEF
:101B200012F038FB204638BD1C4F070810B504469C
:101B3000FFF7EAFF4FF40271204617F0FFFA204644
:101B400010BD0000034B10B504460360FFF7DCFF37
:101B5000204610BD5C1D070810B50446FFF7F2FFD4
:101B60004FF40271204617F0E9FA204610BD0368D1
:101B70000868184708B5011DFFF7F9FF08BD000008
:101B8000044A0346C260002203C99A6083E8030046
:101B9000704700BFAC1D070813B50446CDE900121D
:101BA0006946FFF7EDFF204602B010BD10B50446B0
:101BB000FFF7F2FF204610BD08B5FFF7DBFF08BDB9
:101BC00008B5FFF7F9FF08BD70B590F83831054644
:101BD0001446F3B90368DB69984704F4706304F0B2
:101BE0000F02B3F5407F04F0F0030CBF072108217A
:101BF000302B0CBF02230123012A08D0901E424241
:101C00004241A869BDE87040006812F08DBD022213
:101C1000F7E770BD10B590F8383104462BB9A369C9
:101C2000186812F0C5FD0028F9D010BD38B590F83D
:101C300038510446A5B983695BB1186848B1036897
:101C4000DB689847A36904211D60A06917F076FA44
:101C5000A5610023C4F82831C4F82C31C4F8303110
:101C600038BD13B590F8383104466BBBA3691868CA
:101C700012F072FD40B316F03DFBA36901220DF195
:101C80000701186803685B699847D4F83031B3F5E9
:101C9000807F16D0D4F83031B3F5807F11D0D4F8DE
:101CA00028319DF80720234483F82820D4F82831D0
:101CB0000133DBB2C4F82831D4F830310133C4F831
:101CC000303116F02DFBD1E702B010BD08B590F809
:101CD00038313BB1012001F04BFE0648BDE8084019
:101CE00001F045BA82691AB11368003318BF0123A5
:101CF000184608BD603C002470B504460D4601F04E
:101D000036FA30B12368294620461B6CBDE8704086
:101D1000184770BDA0F59860EEE7000013B590F885
:101D2000383104468DF807102BB1C9B20B48FFF7C4
:101D3000E3FF02B010BDA369186812F039FD002856
:101D4000F9D0A36901220DF10701186803681B6926
:101D50009847013018BF0120EBE700BF603C00242A
:101D60002DE9F04107468846164601F000FA80B199
:101D70000024A6420ED9351B08EB04013846B5F500
:101D8000007F28BF4FF400752A462C4400F036FF30
:101D9000EFE704462046BDE8F081A0F59860DFE754
:101DA00070B590F8383105460E4614462BB10F48F1
:101DB000FFF7D6FF0446204670BDAB69186812F0E5
:101DC000F7FC0028F9D0AB6901211868D0F88830F9
:101DD00088301B6B9847AB69224631461868036808
:101DE0001B699847013008BF0024E4E7603C0024E9
:101DF00030B50446C3B001F0A5F90546D4F8D8358E
:101E0000C3F58073984203DDD4F8D855C5F58075C5
:101E10002A4601AB02A9204600F0E7FF019902AB78
:101E200000226D1A1D44D4F8D835B3F5807F19D03F
:101E30008A4217D0D4F8D835B3F5807F10D0D4F8C3
:101E4000D035A85C234483F8D004D4F8D0350133CE
:101E5000DBB2C4F8D035D4F8D8350133C4F8D8355E
:101E60000132E0E743B030BD38B5044600F0AEFBC8
:101E70002046FFF7BDFFD4F8D855204600F0AEFB52
:101E8000284638BDA0F59860EEE7000010B590F840
:101E9000383104462BB10648FFF7E6FF04462046DA
:101EA00010BD16F027FAD4F8304116F039FAF6E7EB
:101EB000603C002438B5044600F088FB2046FFF75C
:101EC00097FFD4F8D8354BB1D4F8D435234493F8E0
:101ED000D054204600F082FB284638BD4FF0FF3535
:101EE000F7E7A0F59860E5E710B590F838310446BB
:101EF0002BB10B48FFF7DEFF0446204610BD16F05D
:101F0000F9F9D4F830313BB1D4F82C01044494F8F9
:101F1000284016F005FAF0E74FF0FF34F9E700BF6C
:101F2000603C002438B5044600F050FB2046FFF723
:101F30005FFFD4F8D835A3B1D4F8D435234493F84F
:101F4000D054D4F8D4350133DBB2C4F8D435D4F846
:101F5000D835013BC4F8D835204600F03FFB284671
:101F600038BD4FF0FF35F7E7A0F59860DAE70000DD
:101F700010B590F8383104462BB11148FFF7D2FF65
:101F80000446204610BD16F0B5F9D4F830319BB1A7
:101F9000D4F82C31234493F82800D4F82C310133A1
:101FA000DBB2C4F82C31D4F83031013BC4F8303105
:101FB000044616F0B5F9E4E74FF0FF34F9E700BF47
:101FC000603C002410B4D0E9003409686210E407D2
:101FD0005DF8044B01EB020044BF8A58D358184700
:101FE0000146043008B5FFF7EDFF08BD034A03467C
:101FF000C26007C983E80700704700BFB81D070823
:1020000010B586B004460391684606A980E80C0026
:1020100001E90C00204603A9FFF7E8FF204606B0BF
:1020200010BD37B56C46054684E80C0094E80C00FA
:10203000FFF7E6FF284603B030BD000070B590F80A
:10204000383186B004460E46002B3BD1856925B950
:10205000042017F03FF8A0610560A369186850BB21
:102060008C2017F037F83346B4F922200546B4F92E
:10207000201012F085FEA3691D60B4F92420531CC2
:1020800006D0A0690321B4F92630006812F088FE5A
:10209000A3691D68B5B1114B0026214602A8009323
:1020A0006B4601960CCBFFF7BCFF324602A92846CF
:1020B00012F0ECFB03E0314612F023FBDDE702A84F
:1020C000FFF75BF806B070BD8C21284617F036F894
:1020D00025F07AFE02A8FFF750F8F9E7631C040820
:1020E00008B5FFF77DFF08BD08B5FFF7F9FF08BD8C
:1020F0002DE9F84300242D4D4FF47A782C4F2026FB
:1021000005F128002F60EC61C5E90148C5E90564C7
:10211000FEF76CFC01230E2085F8383101F0F0FB4E
:10212000244D81460D2001F0EBFBA5F820904FF6E1
:10213000FF79688405F128002F60EC61A5F82490F0
:10214000A5F82690C5E90148C5E90564FEF74EFCEF
:1021500085F838410F23184D2B84562305F12800AC
:102160002F606B845823EC61AB845923C5E9014887
:10217000EB84C5E90564FEF739FC85F838419823FE
:102180000E4D2B84992305F128002F60EC616B84A0
:10219000A5F82490A5F82690C5E90148C5E905648D
:1021A000FEF724FC85F83841BDE8F883903500241B
:1021B000CC1D0708DC3100241833002454340024DB
:1021C000002070477047704710B5D0F88C452CB18F
:1021D00023682046DB6A9847A468F8E710BD38B545
:1021E0000D46D0F88C4534B1236820462946DB687B
:1021F0009847A468F7E738BD004870478C1E070869
:10220000054B10B50446036014F03FF8204614F067
:102210004DF9204610BD00BF0C1E070810B504463E
:10222000FFF7EEFF4FF4B261204616F087FF20461D
:1022300010BDF7B5002305460E46D0F88C45A4B175
:10224000236831460DF1030220461F6901ABB847F0
:102250009DF803100346042905D0019A284613F07F
:1022600023FB03B0F0BDA468E9E7019A9DF80310D1
:10227000F4E770B505460E4622B10021BDE8704076
:1022800013F01EB9D0F88C455CB1236800223146AA
:1022900020465B69984710B101212846EEE7A46803
:1022A000F2E72146F9E770B50E460546D0F88C45B1
:1022B00000213CB12368314620469B699847A468B9
:1022C0000146F6E72846BDE8704013F0EDB9F8B5D1
:1022D00005460E461746D0F88C453CB1236820468B
:1022E0003A463146DB699847A468F6E7284601215B
:1022F000BDE8F84013F036BA70B5002186B0044648
:1023000013F01DFC00234FF48975A188EF26ADF86A
:1023100006302389ADF8045002258DF810301B0AD1
:10232000E2888DF8113040F201238DF80750ADF8A6
:10233000123040F203138DF809500125ADF8143026
:1023400004F10A038DF8086005AE8DF80A501C46AA
:102350008DF80C1001AD090A8DF80E20120A8DF8C7
:102360000B008DF80D108DF80F202A46083303CA94
:10237000B24243F8080C43F8041C1546F5D1128804
:1023800020461A8006B070BDF8B5002406460D46FA
:10239000274630462AF094FCA04207D9335D05F861
:1023A000143005EB440301345F70F2E7400000F0A5
:1023B000FE00F8BD38B50446D0F88C5535B12B6811
:1023C00028465B6A984710B9AD68F7E7284640F29F
:1023D000023304F24A51A4F84835FFF7D5FF94F8C8
:1023E0004835184484F8480504F5A96038BD000054
:1023F00040F2023300F20A5110B50446A0F8083545
:102400000548FFF7C1FF94F80835184484F808051B
:1024100004F5A16010BD00BFF81D070840F20233AB
:1024200010B50446A0F8C83400F2CA40FFF7D4FA49
:1024300094F8C834184484F8C80404F5996010BDB1
:102440002DE9FF4100231D4A044600F54E788DF822
:102450000A30092590F888350192FA228DF8083063
:1024600001238DF80C208DF80930C0238DF80B3036
:1024700001AB03CBC4F83803C8F8041088F808206F
:10248000D4F88C658EB13368002130469B6898473C
:10249000478805F54E7300F10901093FE0183A46F7
:1024A0003D4429F06FFDB668ECE784F83A534046A6
:1024B0002D1284F83B5304B0BDE8F0810902FFFF00
:1024C00073B504460D46164621F036FD4FF4807371
:1024D00001462A4620460093334613F0A3FF024BE1
:1024E0002046236002B070BD0C1E070810B5D0F85E
:1024F0008C350446A3B9C0F88C1594F88835084685
:102500004A790B7194F88835134484F888350B6840
:102510009B6A9847238918442081012010BD1346E7
:102520009A68002AFBD19960E7E71FB5044613F0CB
:1025300001FB0146684612F0FBFC4021684612F0A0
:1025400069FDD4F88C4534B12368694620461B6A7E
:102550009847A468F7E7684612F0F1FC04B010BD94
:10256000684612F0ECFC25F02FFC10B50446FFF78E
:10257000DCFF2046BDE8104013F0C3BA0F4808B591
:102580000378BFF35B8FDB0711D416F061FB70B1EA
:1025900040F25B2242F241310948FFF791FF0748C0
:1025A00016F078FB074A0849054816F041FB044835
:1025B00008BD024816F076FD25F006FCCC36002456
:1025C000D0360024000000240122040810B5FFF7D3
:1025D000D5FF0368BDE810405B6F184710B5FFF7E3
:1025E000CDFF0368BDE810409B6F184710B5FFF79B
:1025F000C5FF0368BDE81040DB6F184712F040BE0E
:1026000012F054BE12F02CBE704770477047436AF8
:1026100093F878007047D0F8A40470470120704701
:1026200000487047042007082DE9F04794B004469D
:102630000F464B22002101A829F0A2FD2679D4F8EB
:10264000A434751C94F80E90002B94F80C80EDB215
:1026500094F80DE014BF05200020002F40F0938077
:1026600040F2092309218DF81D0042F20540ADF822
:1026700004304FF481738DF815100121ADF8083046
:102680008023ADF81E0010208DF80B3032234FF060
:10269000040A24278DF80C3008234FF0030C4B223A
:1026A0008DF80D300B238DF819101D348DF80E3078
:1026B00040F202238DF81C10ADF8103002238DF883
:1026C000210005208DF822108DF825108DF8271097
:1026D00006218DF806208DF80F608DF812308DF8E8
:1026E00017608DF81A308DF81B308DF823008DF8A7
:1026F00026C08DF82A308DF82B108DF82C008DF81F
:1027000016A08DF824708DF828A08DF829708DF80A
:102710002D708DF82E1007218DF82F6041F20206E2
:102720008DF831108DF8411040F207518DF830507E
:10273000ADF8366040F209468DF83A5040F6022571
:102740008DF832008DF842002046ADF848100DEBB0
:102750000A018DF833908DF834C0ADF83860ADF8CB
:102760003C508DF843808DF844308DF846308DF81C
:102770004AE08DF84B308DF84D3029F003FC2046AF
:1027800014B0BDE8F0870020FAE700000A4B10B54E
:1027900004460360FFF7F2FE13F077FD04F52470A2
:1027A00012F0D2FC04F17C0012F0CEFC04F17000B7
:1027B00012F0CAFC204610BDC41F070810B504461D
:1027C000FFF7E4FF4FF49561204616F0B7FC204672
:1027D00010BDFFF70BBF0000034B10B504460360AC
:1027E00012F06EFB204610BDD41E070810B504463B
:1027F000FFF7F2FF2821204616F0A0FC204610BD6E
:10280000034B10B50446036012F05AFB204610BD7E
:10281000A41E070810B50446FFF7F2FF3421204636
:1028200016F08CFC204610BD034B10B50446036027
:1028300012F046FB204610BDBC1E070810B504462A
:10284000FFF7F2FF3821204616F078FC204610BD35
:1028500038B51E4B0D4604464FF400721968C0F897
:102860000F1099889B79A0F8131002214375284610
:1028700012F0C6FB4FF4007220730221284612F0BA
:10288000C4FB4FF4007260730321284612F0B8FBBA
:10289000A073284612F054FB20B9AF220C490D4812
:1028A00015F030FC04F185020023C4F8882204F2FC
:1028B000992284F8783084F88430C4F88C3284F813
:1028C0009832C4F89C24C4F8A03438BDF01E070820
:1028D0009F1F0708AA1F07082DE9F34104460E466B
:1028E0001546FFF783FEF28823799A4237D1002DEF
:1028F00035D17778012F2ED1F378202B27D132894B
:10290000072A24D104F10F0804F116054046294690
:1029100029F006FBD0B1D4F81630C4F80F30638B21
:10292000207CE17BA4F8133001EB0021E57C607C86
:10293000237F01EB00410095A07C2568637501EBC6
:102940000061237D2046627D6D6BA8473D46F3788C
:10295000212B08BF0125284602B0BDE8F0810025E3
:10296000F9E710B50446FFF741FEFFF707FE217BAC
:1029700013F028FB04F1850304F17C00C4F88832CD
:102980000023C4F88C3284F8843012F092FB94F85F
:1029900084302BB923682046DB6BBDE81040184714
:1029A00010BD000070B50446FFF720FED4F8A05417
:1029B0002DB140F2DD120F490F4815F0A3FB04F2D0
:1029C0009923C4F89C34FFF7D9FD617B13F058FAC2
:1029D00084F89852C4F8A00404F5247012F069FB3E
:1029E00094F898322BB9236820469B6BBDE8704061
:1029F000184770BD9F1F0708FC1E070802232DE91A
:102A0000F041437100230446054683609046144B11
:102A100004F17C0645F8703B284612F03DFB304639
:102A200012F03AFB04F52477384612F035FBC4F86F
:102A3000A484FFF7A3FD2146FFF758FD0CE03846BC
:102A400012F082FB304612F07FFB284612F07CFB2E
:102A500025F0BAF9F6E7F8E72046BDE8F08100BFB7
:102A6000C41F070870B504460D46FFF7BFFD84F884
:102A70007850002D3ED194F8843033B1FFF77EFDBD
:102A8000217B13F077F884F8845004F1850304F176
:102A90007C0600253046C4F88832C4F88C5212F007
:102AA00008FB304612F0FEFA28B94FF4A27214491E
:102AB000144815F027FB94F8983233B1FFF75EFD08
:102AC000217B13F057F884F8985204F2992304F507
:102AD0002475C4F89C3400232846C4F8A03412F0AE
:102AE000E8FA284612F0DEFA20B94FF4A77204493A
:102AF0000548DEE704F17000BDE8704012F0D9BA75
:102B00009F1F07080A1F07081B1F070810B5044668
:102B1000FFF76CFD00212046BDE81040FFF7A2BF83
:102B200038B50D460446FFF761FD042D05D020465B
:102B30000021BDE83840FFF795BF38BDF8B516460F
:102B400004460D461F46FFF751FD0423EA88337003
:102B500023799A4225D16978012922D1EA78212A5C
:102B600008D0222A0BD0202A4FF000001BD1307051
:102B7000163401E00F34317007203C60F8BDAB889B
:102B8000204613F0010308BF1946FFF76BFFAB881F
:102B900003F00103E366AB8803F00203A36602239C
:102BA00033700020EAE703233370E7E710B58AB0FB
:102BB0000446FFF70BFD684612F072F90D4B6946AB
:102BC00004F170000093099412F08BFA2046FFF78D
:102BD00005FD094B002168461A6812F027F968467E
:102BE000FFF7FAFD0AB010BD6846FFF7F5FD25F0C6
:102BF000EBF800BFD41E0708F81E070870B58EB0AA
:102C000004460E461546FFF7E1FC01A812F048F90C
:102C1000114B01A904F17C00019300230C958DF860
:102C20003430CDE90A4612F05CFA2046FFF7D6FCB4
:102C30000A4B002101A81A6812F0F8F804E001A874
:102C4000FFF7DEFD25F0C0F89DF8344001A8FFF73E
:102C5000D7FD20460EB070BDA41E0708F81E070859
:102C600010B50446FFF7C2FC94F884307BB9D4F861
:102C70008C3263B1FFF782FCD4F88C3204F1850208
:102C8000217B13F03DF910B1012384F8843010BD8D
:102C90002DE9F8431E460446894690469DF820706B
:102CA000FFF794FC0023336094F87830E3B194F894
:102CB0008430CBB9D4F88C52C5F50075454528BF92
:102CC0004546B8F1000F05D02A464946D4F8880297
:102CD00029F058F9D4F88C322B44C4F88C32356082
:102CE00017B12046FFF7BCFF2046BDE8F843FFF7C9
:102CF00075BCF0B50446406A85B0012690F878505E
:102D00002DB984F830503546284605B0F0BD04ABE7
:102D10000027D4E90A1243F8047D0096FFF7B8FFB4
:102D20000399E36AA26A5B1A0A44E362A26213B9D6
:102D300084F83060E8E7606A3D46FFF791FFE3E71B
:102D40002DE9F0431C4691B0054689469046FFF7B1
:102D50003DFC002C4FF0000602A806BF01AC012785
:102D60000027266012F09CF8134B02A905F5247089
:102D700002938DF83C708DF83D60CDE90B59CDE99B
:102D80000D8412F0AEF92846FFF728FC0B4B3146B4
:102D900002A81A6812F04AF804E002A8FFF744FDFE
:102DA00025F012F89DF83D4002A8FFF73DFD2046B2
:102DB00011B0BDE8F08300BFBC1E0708F81E07086D
:102DC00010B5D0F8A034044673B990F898325BB9C6
:102DD000FFF7D4FB4FF4007304F29922617B12F0E9
:102DE000F1FF012384F8983210BD70B504461E46E9
:102DF00000230846336094F87830EBB194F89832A9
:102E0000D3B9D4F8A054D4F89C14954228BF1546E1
:102E10002A4629F0B7F83560D4F89C34D4F8A024B9
:102E20002B44551BC4F89C34C4F8A05425B9204643
:102E3000BDE87040FFF7C4BF70BD37B50446406AB7
:102E400090F878502DB984F835500125284603B004
:102E500030BD02AB002243F8042DD4E90A12FFF77B
:102E6000C4FF0199A26A0A44A262226B13680B4450
:102E700013600199E36A5B1A94F83410E36209B9AC
:102E8000126802B91BB9012384F83530DEE7606AA5
:102E90000025FFF795FFD9E710B50446FEF766F960
:102EA000204610BD10B4D0E9003409686210E40770
:102EB0005DF8044B01EB020044BF8A58D358184711
:102EC0000146043008B5FFF7EDFF08BD034A03468D
:102ED000C26007C983E80700704700BFE41E070807
:102EE00010B586B004460391684606A980E80C0038
:102EF00001E90C00204603A9FFF7E8FF204606B0D1
:102F000010BD37B56C46054684E80C0094E80C000B
:102F1000FFF7E6FF284603B030BD0000F0B58BB0E8
:102F20000546FFF763FB06ACFFF728FBAF7B0646C1
:102F300000212046FFF7B0FF009403234FF40072F6
:102F40003946304613F004FA2046FEF716F9FFF72B
:102F500015FB234B06462F7B029300232946204670
:102F6000039302AB0CCBFFF7CCFF009402234FF48A
:102F700000723946304613F0EBF92046FEF7FDF8B3
:102F8000FFF7FCFA174B06466F7B04930023294694
:102F90002046059304AB0CCBFFF7B3FF009402234C
:102FA0004FF400723946304613F0D2F906E020465D
:102FB000FEF7E3F824F008FFF9E7F8E72046FEF70C
:102FC000DCF8FFF7DBFA4FF40073D5F89C24697B3B
:102FD00012F0F8FE012085F898020BB0F0BD00BF9A
:102FE00063290408A529040808B5FFF769FF08BD8F
:102FF00008B5FFF7F9FF08BD6FF01500704700290D
:103000000CBF6FF0180000207047012070476FF070
:10301000150070476FF0150070471120704770471A
:103020007047704703689B6C1847A0F59860F9E7F4
:10303000704770477047704710B50446012000F094
:1030400097FC94F8780010BDA0F59860F4E70000B4
:1030500038B54FF0FF320123FF210B4816F075FA07
:103060000A4D00F067FC044695F878301BB101204A
:1030700000F07EFCF8E700F05DFC001BC728F6D9E5
:10308000BDE83840FEF7BEBC98420024603C0024F6
:1030900007B502AB012243F8041D1946FFF7AEFD48
:1030A00018B1019803B05DF804FB4FF0FF30F9E769
:1030B000A0F59560FFF7ECBF07B5002302A9012238
:1030C00001F8013DFFF73CFE20B19DF8070003B079
:1030D0005DF804FB4FF0FF30F9E7A0F59560FFF7CE
:1030E000EBBF2DE9F8430446884617461E46089D67
:1030F000FFF77CFAD4F8F095B9F1000F04D02B4615
:10310000324639464046C847C4F8E085C4F8E475FD
:10311000C4F8E865C4F8EC55BDE8F883B0F5966FDF
:1031200003D10121014816F0EFB9704798420024FD
:10313000006870470C30704708B5FFF7FBFF0023AD
:10314000036008BD38B50546FFF740FA95F8983298
:103150005BB9D5F8A044B4F5007F28BF4FF40074E4
:103160002846FFF73BFA204638BD0024F8E790F8E0
:1031700078007047114B03F1780270B50360044684
:10318000C0F8A82400F2F45603F1D80200F2346526
:10319000E833C0F8AC24C0F8C034AE4204D0103DCF
:1031A0002846FDF7EAFFF8E704F5956014F02CFCDB
:1031B0002046FFF7EBFA204670BD00BFE820070865
:1031C000A0F59560FFF7D6BFA0F2AC40FFF7D2BFE5
:1031D00010B50446FFF7CEFF4FF4C761204615F047
:1031E000ADFF204610BDA0F2AC40FFF7F1BFA0F547
:1031F0009560FFF7EDBF00002DE9F74304461E463A
:103200008846154620F098FEBDF82C3004F59567E9
:10321000014601932A46BDF82830204600933346E4
:10322000FFF7ECFB0021384614F0C4FB4FF47A732F
:10323000002504F2F45904F59A60C4F8C83429460C
:10324000204B4E46C4F8C45403F178022360C4F8FE
:10325000A82403F1D802E833C4F8AC244FF48072F8
:10326000C4F8C03428F08CFFC4F8D055C4F8D45545
:10327000C4F8D85504F2346530461036FDF776FFB1
:10328000B542F9D10023C4F83436C4F8F035B8F1AA
:10329000000F13D02046FFF789FC0FE04D4504D006
:1032A000103D2846FDF769FFF8E7384614F0ACFBFF
:1032B0002046FFF76BFA24F087FDF9E7204603B0BC
:1032C000BDE8F083E8200708884238B5044606D0F8
:1032D0000D46FDF751F820462946FEF723FA204611
:1032E00038BD08B5FFF726FF0068003018BF012081
:1032F00008BD000010B50446FFF7F3FF28B940F2FF
:1033000002220649064814F0FDFEE068FFF710FFB0
:1033100003462046BDE81040184700BFC9200708F3
:10332000D4200708F8B506460025FFF75FF906F236
:10333000F454D6F83436AB420AD920462746FFF774
:10334000D0FF103420B138460135FFF7D3FFF0E746
:10335000F8BD0000044BC36003460A6843F8042B21
:10336000002242605A6070472820070813B50446BF
:10337000019121B9FFF7E0FE204602B010BD01A97E
:10338000FFF7E8FFF8E710B4D0E9003409686210ED
:10339000E4075DF8044B01EB020044BF8A58D358A0
:1033A00018470146043008B5FFF7EDFF08BD0000DF
:1033B000034A0346C26007C983E80700704700BF9D
:1033C0001C20070810B586B004460391684606A97C
:1033D00080E80C0001E90C00204603A9FFF7E8FF94
:1033E000204606B010BD37B56C46054684E80C0093
:1033F00094E80C00FFF7E6FF284603B030BD00005C
:103400002DE9F04188B00446FFF7E0F8384B20463C
:10341000C4F8F035FFF7E2F8364B04A821460293D2
:103420000023039302AB0CCBFFF7DDFF2046FFF731
:10343000CDF8D4F83406032803D92046FFF7CEF898
:103440000AE0431C04EB001004A9C4F8343600F26F
:10345000F450FFF739FFF0E704A8FDF78EFEBC201B
:1034600015F038FE05460646234B05F1400746F8A1
:10347000043B3046FDF77AFE0021384616F00AF983
:1034800005F15408404616F0A3F81C4B4FF4807227
:10349000182128460093002316F08CF9184904A837
:1034A000C4F8DC55FFF762FF04A9284616F02CFA91
:1034B00010E0404616F0CCF8384616F02AF93046AF
:1034C000FDF75BFEBC21284615F038FE24F07CFC9D
:1034D000F2E7F4E704A8FDF750FE2046FEF788FC6B
:1034E00008B0BDE8F08104A8FDF747FEEEE7FAE773
:1034F0001D310408F11D0408EC42070834200708B8
:1035000051300408A0F59860FFF77ABF03681847A8
:1035100008B5FFF7FBFF08BD08B5FFF742FF08BD80
:1035200008B5FFF7F9FF08BD37B50F4C0F4D204622
:1035300015F0DAFF2A460E49204615F079FB42F2D3
:10354000120301220B4CCDE9003200224FF4F85354
:1035500020461146FFF750FE2A460749204603B091
:10356000BDE8304015F064BB984200240000002400
:1035700015950508603C00247531040808B527F04E
:1035800059F970472DE9F04F027D85B005460E468A
:10359000012A40F08E8000214FF0FF3B04460B468D
:1035A0005F4694F804C048B2BCF1000F73D194F8A0
:1035B00005C0BCF1000F6ED1B7F1FF3F17BF01335B
:1035C000012338465BB2934201DD1A46834601313E
:1035D000023408295DD1002402EB0B03A1460293BB
:1035E000CB4502DC029B4B4558DC95F8058095F8ED
:1035F00004A04FEA281708F00F080AF00F035FEA4B
:103600002A1AFAB201926FD05FFA8AF1BAF1090F61
:1036100030460393D4BF3031573100F0CAF8039BD2
:103620000444092B3046039394BF03F1300103F1A6
:10363000570100F0BEF80444BAF1000F02D1039B19
:1036400003B94FB1092F019F3046D4BF30375737E8
:10365000F9B200F0AEF80444B8F1090F304694BF57
:1036600008F1300108F1570100F0A3F8B9F1070F94
:10367000044404D03A21304600F09BF8044409F198
:1036800001090235B9F1080FAAD1204605B0BDE8FD
:10369000F08F074685E74FF0FF3098E7CB45EED136
:1036A000BBF1000FE6D13A21304600F082F8044425
:1036B000E0E700F1100700F11309002417F8011BDF
:1036C0000A22304600F0D6F880462E21304600F01F
:1036D00070F8B94540440444F0D10A22E97C3046F0
:1036E00000F0C8F80444D0E7002B9AD1A9E7000005
:1036F000054B102210B5044603600175002104300B
:1037000028F03EFD204610BD0422070870B5074D85
:103710008374056000259DF810300575456085604F
:10372000C56001744274C37470BD00BF04220708F1
:1037300007B501210648FFF7DBFF002305481A46BD
:1037400019460093FFF7E2FF03B05DF804FB00BFEA
:10375000AC420024C44200242DE9F04106460D4647
:1037600001EB02080C464445A4EB050707D033687B
:10377000304614F8011B1B6898470028F3D13846DF
:10378000BDE8F08170B5044608460D4629F098FA68
:1037900023680246294620465B68BDE8704018470A
:1037A00009B1FFF7EFBF0846704708B5FFF7F8FF0C
:1037B00008BD03681B6818470149FFF7E3BF00BF56
:1037C0000969070870B58AB00D460023012A98BF21
:1037D0000A220AA901F8043DB5FBF2F402FB1456D3
:1037E0002546F3B2092E94BF30333733DBB201F8EC
:1037F000013D002CF0D1FFF7D3FF0AB070BD2DE9D9
:10380000F04107460E4615462AB90368C9B21B683F
:10381000BDE8F04118470A2A05D1002905DBBDE8BB
:10382000F041FFF7CFBFD2B2F9E72D21FFF7C1FF7B
:1038300004462A4671423846FFF7C4FF2044BDE8DB
:10384000F081FFF7DCBF38B50546FFF7D8FF044627
:103850002846FFF7B1FF204438BD10B42AB90368E9
:10386000C9B25DF8044B1B681847D2B25DF8044B2F
:10387000FFF7A8BFFFF7F1BF704713B50020009016
:103880000DF0B6FE044610B1009802B010BD01ABB9
:10389000042269460DF08AFE20460DF0ABFEF3E7E8
:1038A00010B500F067F80A4CFEF7E4F8FEF766FE84
:1038B000FEF75BFE4FF4E1310648FFF7A1FDFCF790
:1038C000D9FEFCF70DFF002CFBD0AFF30080F8E72A
:1038D00000000000603C002470B505460024074E3F
:1038E000FDF7FAFFE3B2984206D918461B010134EE
:1038F000F35EAB42F4D170BDFF20FCE74000002432
:1039000010B50446FDF7E8FF84423BBF2401024B9B
:103910004FF0FF30185F10BD4000002410B5044682
:1039200011F0DAF8204610BD10B5044611F0D4F8B5
:10393000204610BD07B50749684611F00AF94FF453
:103940007A720023DDE9000124F090FD03B05DF8F8
:1039500004FB00BFE042002407B50449684611F0AB
:10396000F8F8009803B05DF804FB00BFF8420024AB
:1039700015F0D6BE08B5044811F0B8F80348BDE804
:10398000084011F0B3B800BFF8420024E042002420
:1039900015F0D6BE38B50A4C0A4D204611F016F97E
:1039A0002046094C2A46094915F042F9204611F0F3
:1039B00018F92A4620460649BDE8384015F038B9BE
:1039C000F842002400000024E042002429390408C1
:1039D0001D39040870B504460D46164600211C2208
:1039E00028F0CEFB20463246294613F02DF920461A
:1039F00070BD00002DE9F04104460E46FDF76CFF56
:103A000084423CD21F4D2701EA19D06810B11C2115
:103A100015F094FB2046FFF773FF80461C2015F03D
:103A200059FB044600211C2228F0AAFB41462046EF
:103A300013F007F9EB19012EDC6010D006D3022E2B
:103A400012D0204610F06DF8022103E0204610F05D
:103A500068F800212046BDE8F04110F06FB820461C
:103A6000BDE8F04110F050B8204610F05AF801219E
:103A7000F0E71C21204615F061FB24F0A5F9BDE814
:103A8000F08100BF4000002430B589B004460D46E7
:103A9000FFF722FFC0B2FF2804D02946FFF7AAFF94
:103AA00009B030BD012D14D00AD3022D1CD0022242
:103AB000214601A8FFF78EFF01A813F061F8EFE798
:103AC0000022214601A8FFF785FF01A813F058F84E
:103AD000E6E71C22002101A828F052FB0022214623
:103AE00001A813F0B3F8DBE70122214601A8FFF794
:103AF00071FF01A813F044F8D2E700002DE9F3416B
:103B000006460F46FDF7E8FE86422AD21B4D4FEAD5
:103B1000061805EB0802D468ACB93046FFF7F0FE92
:103B200006461C2015F0D6FA04461C22002128F077
:103B300027FB0097002301223146204613F09FF80F
:103B400005EB0803DC600E4B0E491A46D3F89400CF
:103B50008842FBD123683FB1A1680B604FF44073EA
:103B6000536102B0BDE8F081E1681B04F5E71C2158
:103B7000204615F0E3FA24F027F900BF40000024A6
:103B8000006402580003008030B589B005460C4639
:103B9000FFF7A2FEC0B2FF2804D02146FFF7AEFF18
:103BA00009B030BD1C22002101A828F0E9FA2946FD
:103BB00001A813F061F8094B09491A46D3F894009B
:103BC0008842FBD1019B2CB103990B604FF44073E9
:103BD0005361E5E71B040499F7E700BF006402584E
:103BE000000300801EF0040F0CBFEFF30880EFF31A
:103BF0000980816911F8021C002932D101B590E8D1
:103C00000F10E047BDE800508CE80300244B93E818
:103C10000600914208BF70471A6041B91EF0100FAC
:103C200010D1204B186820F0010018600AE02CE940
:103C3000F00F1EF0100F08BF2CED108A81F822E063
:103C4000C1F838C0906B92F8221061F0FF0E1EF0A0
:103C5000100F08BFB0EC108AB0E8F00F80F30988AD
:103C60007047114A13689942FAD801B552F821C039
:103C70000FC8E047BDE80050CCF80000704701B520
:103C800001F0D4FBBDE80140EFF3098CBEE701B5BC
:103C900001F090FBBDE80140EFF3098CB6E70000AE
:103CA000740C002434EF00E0D0220708014608B568
:103CB00030B96FF0030000F01DFA6FF0030008BD8B
:103CC000132001F0ABFF30B94FF0FF3000F012FAD3
:103CD0004FF0FF30F3E70020F1E7000008B5EFF305
:103CE00005832BB9EFF3108313B9EFF3118333B1CD
:103CF0006FF0050000F0FEF96FF0050008BDDFF879
:103D000008C000DFFAE700BFAD3C0408EFF3108302
:103D10002BB9EFF31180003818BF01207047012044
:103D2000704710B520B10378F32B01D1002906DAD2
:103D30006FF0030102F05CFA6FF0030010BD00F1B8
:103D40000C0353E8000F20EA010243E8002404B109
:103D5000F7E7F3E738B50546A0B1846802686CB1AF
:103D600014F0030302D1C1680F2926D800246FF094
:103D70000801002002F03CFA204638BDC368002B41
:103D8000F4D11546104BD3F8900078B100F087FCC1
:103D90000446A0B10123F322A370002365602270C2
:103DA0000A4AC4E90233084B5A66E5E701221021AA
:103DB000D3F8800000F0FAFBEAE71546EBE76FF076
:103DC000040102F015FAD7E7600C0024393E04081C
:103DD000930710B502F0010422D400F10C0384B162
:103DE00053E8000F00EA01028A4203D0BFF32F8F8D
:103DF000002005E020EA010243E8002404B1EFE7D7
:103E000010BD53E8000F084203D1BFF32F8F0020ED
:103E100005E020EA010243E8002404B1F1E7EFE7FE
:103E2000C06801EA00031CB1994218BF0020E7E70F
:103E3000002B08BF0020E3E7F8B50546846804B905
:103E4000F8BD94F823202846616AA768FFF7C0FFF1
:103E5000064638B1204601F062FC00223146204679
:103E600001F0F6FD3C46EAE7F8B50D4617461E465A
:103E7000044620B10378F32B01D1002907DA20464C
:103E80006FF0030102F0B4F96FF00300F8BDFFF723
:103E90009FFF0028FAD186B13146432001F0BEFED3
:103EA00040B1074B20465E69314601F01DFC75624A
:103EB00086F823706FF00100E8E76FF00200E5E795
:103EC000600C002470B5054610B10378F32B07D0C1
:103ED00028466FF0030102F08BF96FF0030070BD0C
:103EE000836863B1284601F011FC00226FF00201E3
:103EF00001F0AEFDA8680028F4D101F08FFCAB788A
:103F0000002613F001032E700FD0094B2946D3F879
:103F1000904024B1204600F0DCFB3046DFE7D3F8C8
:103F2000800000F078FB2046D9E71846D7E700BFAD
:103F3000600C00242DE9F041064620B10378F32BF4
:103F400001D1002909DA6FF003056FF00301304653
:103F500002F04EF92846BDE8F08100F10C0353E869
:103F6000002F42EA010543E8005000B1F7E7B468CA
:103F70001CB9204601F052FCECE794F823203046AF
:103F8000616AD4F80880FFF723FF074678B194F8F8
:103F900023309B0756BF656A054620EA0505204683
:103FA00001F0BDFB00223946204601F051FD444698
:103FB000DEE70000024608B5EFF3058333B10020C9
:103FC0006FF0050102F014F9002008BDFFF79EFE16
:103FD0000028F4D11046DFF808C000DFF5E700BF85
:103FE000553D0408024638B5EFF305834BB192B94D
:103FF0006FF003046FF00301104602F0F9F8204659
:1040000038BDFFF783FE0028F1D11046DFF82CC041
:1040100000DF0446F3E71378F32BE9D10029E7DB4F
:1040200002F10C0353E8000F40EA010443E80045A5
:1040300005B1F7E7104601F041FAE0E7353F040823
:10404000024608B5EFF3058323B11046BDE80840EA
:10405000FFF767BEFFF75AFE0028F6D11046DFF8DB
:1040600008C000DF08BD00BF233D040838B5044682
:104070001D46EFF3058343B18CB920466FF0030171
:1040800002F0B6F86FF0030038BDFFF73FFE0028DE
:10409000F2D120462B46DFF824C000DFF4E7237876
:1040A000F32BEAD1002DE8D10029E6DB2046FFF70B
:1040B0008FFE002808BF6FF00200E5E7693E0408A4
:1040C000024608B5EFF305833BB110466FF00501DA
:1040D00002F08EF86FF0050008BDFFF717FE00280C
:1040E000F3D11046DFF804C000DFF5E7C53E040851
:1040F000704770477047EFF310832BB9EFF31180CF
:10410000003818BF0120704701207047064BDA6A5B
:104110003AB1D0695B6C1BB11B69984228BF184645
:1041200070474FF0FF30F5E7600C0024014BD86872
:10413000704700BF600C002408B5094B1A7A022AA8
:1041400008D0032A0AD04FF0FF3002F045F84FF0B4
:10415000FF3002E0032200201A7208BD0120FCE7B4
:10416000600C002470B5464C237A012B00F085804A
:1041700033B14FF0FF3002F02FF84FF0FF3070BD39
:10418000404DEB68E3652B8AD5E90B61A4F8543008
:10419000AB683046236400F0F1F908B1C4F88060E0
:1041A000D5E90561304600F0E9F908B9D4F8806036
:1041B0006667D5E90761304600F0E0F908B9D4F840
:1041C0008060A667D5E90961304600F0D7F908B9E3
:1041D000D4F88060E6676E6B3EB131683046D6E950
:1041E000022300F03BFAC4F88460AE6B3EB1316844
:1041F0003046D6E9022300F031FAC4F88860EE6B4D
:104200003EB131683046D6E9022300F027FAC4F8FF
:104210008C602E6C3EB131683046D6E9022300F046
:104220001DFAC4F890606E6C3EB131683046D6E934
:10423000022300F013FAC4F89460AE6C3EB131680A
:104240003046D6E9022300F009FAC4F89860EE6C13
:104250003EB131683046D6E9022300F0FFF9C4F8D8
:104260009C602D6D3DB129682846D5E9022300F0F8
:10427000F5F9C4F8A0500123237200207FE700BFA6
:10428000600C00246022070870B5254D2B7A012BA5
:1042900007D06FF006004FF0FF3401F09DFF20467D
:1042A00070BD01F01FFD10B94FF0FF30F3E71D4A5C
:1042B000FF231D4E82F8223092F82230D26863F03C
:1042C000FF031A49C2F302227068DB4314BFB3FA3A
:1042D00083F32023C3F12003934298BF531CFE2293
:1042E00002FA03F30F4ADBB2D37701F0D1FF0446A1
:1042F0000028D9D102F024F8286102F00DF80C480A
:1043000001F004FA01F082FA3368DB074CBF0223A4
:10431000032383F31488BFF36F8F02232B72BEE74E
:10432000600C002400ED00E0602207088F3C0408C8
:104330007C0C002408B50A4B1A7A023A012A02D8EA
:1043400040B1012809D04FF0FF3001F045FF4FF098
:10435000FF3001E002221A7208BD0322FBE700BF12
:10436000600C002410B50F4C237A022B13D101F0FE
:10437000DBFF01236372BFF34F8F0B4A5168C90003
:1043800003D54FF000615160A37204232372BDE88E
:104390001040FFF7BBBE6FF0070001F01DFF0020CB
:1043A00010BD00BF600C002400ED00E038B51E4CCD
:1043B0000546237A042B35D1FFF7A8FEE26AA8420E
:1043C000034694BF00F1FF332B4612B1D069C01AE7
:1043D000D061626C12B11069C01A1061E0680344C8
:1043E0000544E360E368AB4213D10223002023724B
:1043F00001F014FA00236372BFF34F8FA27A22B147
:10440000A3724FF08052094B5A60BDE8384001F06A
:1044100083BF0133E36001F0BFF9236D002BE1D0CE
:104420009847DFE738BD00BF600C002400ED00E0D6
:10443000704738B504460D46FFF75AFE2946204618
:10444000BDE8384001F08ABE08B5FFF7F1FFEFF391
:10445000058333B16FF0050001F0BEFE6FF005007B
:1044600008BDFFF748FE0028F4D1DFF808C000DFE0
:10447000F6E700BF6541040808B5EFF3058333B1E3
:104480006FF0050001F0A8FE6FF0050008BDFFF712
:1044900032FE0028F4D1DFF808C000DFF6E700BFE5
:1044A0008942040808B5EFF3058333B16FF00500C6
:1044B00001F092FE6FF0050008BDFFF71CFE00281A
:1044C000F4D1DFF808C000DFF6E700BF3941040887
:1044D000024608B5EFF3058333B16FF0050001F034
:1044E0007BFE6FF0050008BDFFF705FE0028F4D144
:1044F0001046DFF808C000DFF5E700BF35430408C9
:1045000008B5EFF305832BB16FF0050001F064FEF1
:10451000002008BDFFF7EFFD0028F5D1DFF804C04B
:1045200000DFF6E765430408024608B5EFF30583AC
:104530002BB16FF00500BDE8084001F04DBEFFF75C
:10454000DAFD0028F5D11046DFF804C000DF08BD11
:10455000AD43040808B5EFF3058313B1054BD868E4
:1045600008BDFFF7C8FD0028F8D1DFF80CC000DF58
:10457000F6E700BF600C00242D41040810B598B187
:1045800040EA010313F007030ED117290AD901608D
:10459000083910220C18426084600B5081684A6010
:1045A000C3600123184610BD0023FBE7F0B580B3BC
:1045B00099B132F003032CD10F3100F1080521F03D
:1045C00007072B462D685C68E91A24F00304091BD1
:1045D0008F4204D929680029F3D10846F0BD466806
:1045E0003A4304683E444660204450F8041C0838AE
:1045F0008E4288BF4660586818B903F108015A60B6
:10460000EBE720F0030019181D504A6019600831CB
:10461000E3E70021E1E730B590B1D9B1A1F1080598
:1046200000F108040022AC420BD151F8043C23F005
:10463000030443681B1B436042B941F8042C01206A
:1046400030BD236822463BB11C46ECE751F8083CDC
:104650001360F4E70846F3E71846F1E730B5C0B158
:1046600089B1C2B1CBB100240160C3604361C0E92C
:10467000014202FB01F41D1905611846013904D1FC
:10468000A21A99500121084630BD851805602846B8
:10469000F4E70146F7E71146F5E71946F3E7034665
:1046A00010B5A8B100F1140252E8000F10B9BFF321
:1046B0002F8F04E0016842E8001404B1F4E738B138
:1046C000043353E8002F511C43E8001404B1F8E709
:1046D00010BD30B5F0B1C3688B421BD803698B4263
:1046E00018D900F114031A680A60BFF35F8F53E80A
:1046F000002F0C689442F6D143E8001505B1F2E7AB
:10470000043050E8003F5A1E40E8002101B1F8E7AC
:10471000002030BD6FF00300FBE7EFF310832BB9EF
:10472000EFF31180003818BF012070470120704757
:10473000036B30B5E3B1CD780024DA78AA420FD309
:104740001A46C1E901248AB19160A4B161602830A0
:1047500050E8003F5A1C40E8002101B1F8E730BDA5
:104760005A681C46002AECD01346E6E7C162ECE723
:10477000C1E90133C1620163E9E7D1E9013223B143
:104780009A608A681AB153607047C262F9E703639E
:104790007047F8B5877804468FB3C568002701468F
:1047A00005F10C062846FFF7E8FF27703046FFF7B3
:1047B00090FFAB68002B48D03046FFF770FF0446EF
:1047C000002842D0284600F0A1FF06463A46394666
:1047D00001F03EF9304601F00FF86A6A064681683A
:1047E00004F10C0027F0CEFBF923A7702370F368C7
:1047F000E37021462846BDE8F840FFF799BF856879
:10480000AB68002BF5D05B78832BF2D1284600F003
:104810007DFF06463A46394601F01AF9304600F067
:10482000EBFF06466A6A04F10C01806827F0AAFBD8
:10483000F3680BB1E2781A700023214605F10C00F1
:104840002370BDE8F840FFF744BFF8BD2DE9F04103
:104850000C4617469846054618B10378FA2B00D146
:1048600041B928466FF0030101F0D8FC6FF0030056
:10487000BDE8F0818368C3B15B78832B15D100F06C
:1048800045FF06460122002101F0E2F8304600F023
:10489000B3FF06466A6A2146806827F073FBF0681A
:1048A0000028E5D007700020E2E705F10C00FFF7D3
:1048B000F6FE064670B121466A6A0C30002427F0E5
:1048C00061FBF923314628463370B470F770FFF767
:1048D0002FFFE8E7B8F1000F10D04146932001F018
:1048E0009DF940B1074B2846596900F0FDFEEFF3F2
:1048F0000983C3E902476FF00100B9E76FF00200D6
:10490000B6E700BF600C00242DE9F84F8846074643
:1049100038B131B1B0FA80F3B1FA81F10B441F2BF9
:1049200006DC6FF003010020002401F077FC70E04A
:1049300008F1030626F003060C3606FB00F9F2B177
:1049400094683CB1A30702D1D368332B05D86FF02C
:104950000801E8E7D368002BF9D1D2F800A0D2E92A
:1049600004533DB115F0030B01D1994554D96FF0B3
:104970000901D8E7002BFAD11CB19B460CE0924606
:104980001546274BD3F8A000D8B1FFF788FE0446A0
:10499000A0B14FF0010B35BB214B00224946D86F27
:1049A000FFF704FE0546C0B9BBF1000F06D01C4B53
:1049B0002146D3F8A00058B1FFF78BFE6FF0040139
:1049C000B1E701223421D3F88000FFF7EFFDDEE7E5
:1049D000D3F88000FFF71FFEF0E74BF0020B4A46CA
:1049E000002127F0CDFBFA233246394604F10C00B2
:1049F0002370002384F802B0A360C4F804A0C4E9C3
:104A00000983C4E90B332B46FFF728FE044B054A04
:104A10001A672046BDE8F88F002CE4D1B1E700BF4B
:104A2000600C00249347040800F1280310B553E8F4
:104A3000002F12B9BFF32F8F04E0511E43E800147A
:104A400004B1F4E70AB9002010BDC06A01230028B0
:104A5000F9D0821CD2E84F1FC2E8443F04B1F9E705
:104A600011F0FF0FF0D08068F1E700002DE9F04170
:104A70000F4615469846044618B10378FA2B00D124
:104A800041B920466FF0030101F0C8FB6FF003004D
:104A9000BDE8F081FFF7C8FF064600283AD001467E
:104AA0002046FFF76AFE626A06F10C01384627F0DD
:104AB00069FA0DB1F3782B70002504F10C0731462B
:104AC00038463570FFF705FEA3680BB90020DFE715
:104AD0003846FFF7E4FD06460028F7D0204600F0F0
:104AE00015FE07462946012200F0B2FF384600F0C5
:104AF00083FE626A0746816806F10C0027F042FADD
:104B0000F923B570314633702046FB68F370FFF728
:104B10000FFEDBE7B8F1000F10D04146832001F013
:104B20007DF840B1074B2046596900F0DDFDEFF3F9
:104B30000983C3E902756FF00100A9E76FF0020075
:104B4000A6E700BF600C002408B5064B08219A6E4A
:104B5000D86EFFF7D9FE044BD864B0FA80F0400954
:104B6000404208BD60220708600C00242DE9F04196
:104B700006460F4690461C46EFF305834BB196B9A7
:104B800030466FF0030101F049FB6FF00300BDE810
:104B9000F081FFF7C2FD0028F1D130462346DFF84F
:104BA00048C000DFF3E73378FA2BE9D1002FE7D0D4
:104BB000002CE5D106F10C00FFF771FD054680B130
:104BC000726A39460C3027F0DDF9F9232846AC70BB
:104BD0002B7085F80380C5E9017600F06FFC204654
:104BE000D5E76FF00200D2E74D480408F8B5044657
:104BF0000F4616461D46EFF3058343B18CB9204698
:104C00006FF0030101F00AFB6FF00300F8BDFFF73E
:104C100084FD0028F2D120462B46DFF844C000DF97
:104C2000F4E72378FA2BEAD1002FE8D0002DE6D163
:104C30002046FFF7F9FE054670B100F10C01626AEB
:104C4000384627F09FF90EB1EB7833702846EC60B8
:104C500000F034FC0020D9E76FF00200D6E700BF77
:104C60006D4A0408EFF310832BB9EFF3118000387D
:104C700018BF0120704701207047000070B5A8B32D
:104C80008468D0E900566CB114F0030302D1C26805
:104C90001B2A1AD800246FF00801002001F0AEFA98
:104CA000204670BDC368002BF4D1124BD3F894009A
:104CB00030B901221C21D3F88000FFF777FC01E016
:104CC000FFF7EDFC044660B10123F522A370002339
:104CD000E670227065602376C4E90233C4E90433C8
:104CE000DEE76FF0040101F089FAD9E705460646D0
:104CF000DBE700BF600C0024284B70B55D690446FB
:104D00000E4635B96FF0070101F078FA4FF0FF3029
:104D100070BD10B10378F52B07D020466FF003016A
:104D200001F06CFA6FF00300F2E7037E53B9C0E9BB
:104D30000353EB6A436103B118610123EC62002065
:104D40002376E5E7C278D1070DD5C168A9420AD11B
:104D5000FF2B06D16FF00F0101F050FA6FF0020047
:104D6000D6E70133EBE7002EF8D093070AD5E068C9
:104D700095F9203090F920209A4203DA80F820300B
:104D800000F0D6FC3146532000F048FF18B1294608
:104D9000204600F0A9FC6FF00100B9E7600C002488
:104DA0002E4B5A6970B5044632B96FF0070101F015
:104DB00025FA4FF0FF3070BD10B10378F52B07D006
:104DC00020466FF0030101F019FA6FF00300F2E7DB
:104DD000037E33B96FF00E0101F010FA6FF002009C
:104DE000E9E7C168914202D06FF00D01F4E7013BA1
:104DF000DBB2037613BB43690BB101691961216909
:104E0000F1B14B6192F92130D56ADDB982F82030D9
:104E1000A36883B1204600F079FC06462A4629465D
:104E200000F016FEF36AC4E90365636103B11C6117
:104E30000123F4622376002000F0F0FC0020BAE7A2
:104E4000D362DFE7E978890706D5A96821B191F92E
:104E500020108B42B8BF0B466D69D6E7600C00246A
:104E600070B5044610B10378F52B07D020466FF0DB
:104E7000030101F0C3F96FF0030070BD037EBBB105
:104E80006369C0680BB122691A61226902B3536178
:104E900090F92120C36AEBB990F92030934203D0F6
:104EA00080F8202000F044FCA068F8B900F0B6FCBF
:104EB000A078002610F001002670DED0134B2146AA
:104EC000D3F89450DDB12846FFF703FC3046D4E711
:104ED000C362DDE7D978890706D5996821B191F9D0
:104EE00020108A42B8BF0A465B69D4E7204600F02A
:104EF0000DFC00226FF0020100F0AAFDD4E7D3F808
:104F00008000FFF788FB2846B7E700BF600C00244D
:104F10002DE9F0410446002601270CB9BDE8F081D7
:104F2000E378D4F814801B0712D5A36826767BB1EA
:104F3000204600F0EBFB00220546114600F088FDFC
:104F4000EB6AC4E90356636103B11C61EC62277626
:104F50004446E2E710B4C3789B071DD5C06890F9BA
:104F60002120C36ADC78A40709D59C688C4208BF5D
:104F70008C6824B194F92040A242B8BF22465B69F4
:104F8000002BEFD190F92030934205D080F82020FB
:104F90005DF8044B00F0CCBB5DF8044B704700009B
:104FA000024608B5EFF3058333B100206FF0050129
:104FB00001F024F9002008BDFFF754FE0028F4D1C9
:104FC0001046DFF808C000DFF5E700BF7D4C04089D
:104FD000024608B5EFF305833BB110466FF00501BB
:104FE00001F00CF96FF0050008BDFFF73BFE00284B
:104FF000F3D11046DFF804C000DFF5E7F94C0408F0
:10500000024608B5EFF305833BB110466FF005018A
:1050100001F0F4F86FF0050008BDFFF723FE00284B
:10502000F3D11046DFF804C000DFF5E7A14D040816
:10503000024608B5EFF305833BB110466FF005015A
:1050400001F0DCF86FF0050008BDFFF70BFE00284B
:10505000F3D11046DFF804C000DFF5E7614E040825
:10506000EFF310832BB9EFF31180003818BF012044
:105070007047012070470C30D0E85F3F13B9BFF391
:105080002F8F04E05A1EC0E8512F01B1F4E798B207
:10509000003818BF0120704730B500F10C02C189FB
:1050A000D2E85F3F994202D8BFF32F8F04E05C1C27
:1050B000C2E8554F05B1F3E7C0899BB2984294BF4F
:1050C0000020012030BD0000F8B515464FF6FE73F4
:1050D000421E06460F469A4201D8884207D26FF018
:1050E00003010024002001F08FF82046F8BD7DB1B7
:1050F000AC682A6844B114F0030302D1E9680F29AF
:1051000022D86FF00801ECE7EB68002BF9D11546C7
:10511000114BD3F8980080B1FFF7C1FA0446A8B14B
:105120000123F622A370002365602270A3600B4A5E
:10513000094BA781E6819A66D7E701221021D3F8AF
:105140008000FFF733FAE9E71546EAE76FF004015C
:1051500001F05AF8C9E700BF600C0024615104084F
:10516000836810B504465BB1FFF785FF40B1204668
:1051700000F0CCFA0022BDE81040114600F068BCF7
:1051800010BD38B5054610B10378F62B07D0284678
:105190006FF0030101F038F86FF0030038BD846848
:1051A0003CB100F0B3FA0122002100F051FC0020D4
:1051B000F4E7FFF771FF38B928466FF0100101F0EE
:1051C00023F86FF00200E9E72046E7E738B50D461F
:1051D000044610B10378F62B07D020466FF0030188
:1051E00001F012F86FF0030038BDFFF744FF68B913
:1051F00075B12946632000F011FD20B1064B204611
:10520000596900F071FA6FF00100EDE70020EBE75B
:105210006FF00200E8E700BF600C002470B505469F
:1052200010B10378F62B07D028466FF0030100F089
:10523000EBFF6FF0030070BD836863B1284600F098
:1052400065FA00226FF0020100F002FCA868002855
:10525000F4D100F0E3FAAB78002613F001032E70CE
:105260000FD0094B2946D3F8984024B12046FFF7C8
:1052700030FA3046DFE7D3F88000FFF7CCF920465C
:10528000D9E71846D7E700BF600C002410B50446E4
:10529000EFF3058333B100206FF0050100F0B4FF98
:1052A000002010BDFFF7DCFE0028F4D12046DFF817
:1052B00008C000DFF5E700BFC9500408024608B582
:1052C000EFF3058343B182B910466FF0030100F09C
:1052D0009BFF6FF0030008BDFFF7C2FE0028F2D16C
:1052E0001046DFF824C000DFF5E71378F62BEBD18A
:1052F0000029E9D11046FFF7BEFE002814BF0020A8
:105300006FF00200E7E700BFCD51040810B5044676
:10531000EFF3058343B184B920466FF0030100F039
:1053200073FF6FF0030010BDFFF79AFE0028F2D163
:105330002046DFF830C000DFF5E72378F62BEBD10D
:105340002046FFF7A9FE20B1204600F0B7F8002064
:10535000E9E720466FF0100100F056FF6FF0020001
:10536000E1E700BF83510408024608B5EFF3058367
:105370003BB110466FF0050100F046FF6FF00500ED
:1053800008BDFFF76DFE0028F3D11046DFF804C01A
:1053900000DFF5E71D52040810B5D0E85F3F5A1C46
:1053A000914200D80022C0E8542F04B1F5E798B22A
:1053B00010BD000038B51C4C00F0BCFFE3680133A1
:1053C000E36000F0E9F9002000F028FA236D03B152
:1053D0009847226C32B3A369E16B994203D0D96933
:1053E000E36301B9DA61DA69C2B9237A022B19D110
:1053F000656ABDB1E36B95F9202093F920309A429C
:1054000010D1284600F08BF9E06B00F0A3F9284694
:1054100000F0FCF9236CE563EB6103E0013ADA612B
:10542000002AE2D038BD00BF600C002470B5224CC9
:1054300004F1560504F15A06B4F85410D5E85F3F5C
:1054400013B9BFF32F8F04E05A1EC5E8502F00B1E7
:10545000F4E79BB25BB33046FFF79EFFE36D53F872
:10546000200020B30378F13B082BE5D801A252F8C5
:1054700023F000BF99540408395404089F540408C9
:105480003954040839540408A3540408A7540408E0
:1054900039540408AB540408236E9847CCE7636E74
:1054A000FBE7A36EF9E7E36EF7E7236FF5E700206C
:1054B000BDE8704000F0B2B9600C002470B5164C25
:1054C0000546B4F8541004F15602D2E85F3F994201
:1054D00002D8BFF32F8F04E0581CC2E8560F06B164
:1054E000F3E79BB2994205D829460220BDE87040F7
:1054F000FEF79FBF04F15800FFF74EFFE36D43F83E
:105500002050637A23B9054B4FF080525A6070BD2A
:105510000123A372FBE700BF600C002400ED00E054
:10552000EFF310832BB9EFF31180003818BF01207F
:105530007047012070470378F12B00D07047C06896
:10554000F9E7000010B5C469621CD0E904310CD140
:1055500003B1596142691AB113610023436101E04B
:10556000074A13630023C36110BD1BB1DA69596197
:105570002244DA614269002AEED1014AD362F1E79E
:10558000600C002401230A4A90F9201043701C3259
:10559000936810B51BB193F920408C4205DCC0E93B
:1055A0000232906003B1D86010BD1A469B68F1E7E3
:1055B000600C0024014B5869704700BF600C002448
:1055C00008B500F031FEDFF810C000DF4FF0FF310A
:1055D000002000F007FEFEE7B95A0408930710B553
:1055E00002F0010422D400F1280384B153E8000F33
:1055F00000EA01028A4203D0BFF32F8F002005E0AA
:1056000020EA010243E8002404B1EFE710BD53E8AB
:10561000000F084203D1BFF32F8F002005E020EADE
:10562000010243E8002404B1F1E7EFE7806A01EAF0
:1056300000031CB1994218BF0020E7E7002B08BF08
:105640000020E3E7084A0021136B10B53BB94FF087
:10565000FF34C0E90431C46121B1086110BD1946AD
:105660001B69F3E71063F9E7600C0024002310B511
:105670000380044683789A0708D513F0100F016B56
:105680000E4B0FD0D3F88400FFF723F8A378DB0785
:1056900012D50A4B2146D3F8880038B1BDE8104036
:1056A000FFF717B8586FFEF7B6FFEFE7D3F88000A3
:1056B000BDE81040FEF7AFBF10BD00BF600C002476
:1056C000C2780346D20701D4FFF7D0BF042242704C
:1056D0000022C260034A516B816001B1C86053630C
:1056E000704700BF600C002491F92020836810B53A
:1056F0001BB193F92040944205DAC1E90230816080
:1057000003B1D96010BD18469B68F1E783689A68B9
:10571000826002B1D06000221846DA607047C26829
:105720002AB18368936003B1DA600023C3607047D5
:1057300010B50146044664B12378F12B07D0084622
:10574000FFF7EDFF2046BDE81040FFF7CDBFE4684E
:10575000F1E710BD0123014643700148FFF7C4BFC4
:105760007C0C002470B50B4D2E7A022E10D16C6A81
:1057700074B1696994F9202091F920309A4207D1D7
:105780002046FFF7CCFF0846FFF7E4FF6670AC61E8
:10579000002070BD600C002438B5164DEC6A44B38F
:1057A000E369013BE36123BB6378732B06D009D81F
:1057B000532B0BD003F0DF03432B0DD12046FFF713
:1057C000BAFE09E003F0EF03832BF6E72046FFF76C
:1057D000B2FE2146FFF7BEFB2046FFF7A0FFFFF712
:1057E000B9FF246924B1E369002BDDD00023636194
:1057F000EC6238BD600C002490F82230826B13F00C
:10580000100F0CBF6020202010447047022343700B
:10581000014B9861704700BF600C002470B5124DB9
:1058200004462E7A696990B9022E0FD16C6A6CB168
:1058300094F9202091F920309A4207DD2046FFF7A5
:105840006EFF0846FFF79EFE6670AC6170BD022ECB
:1058500005D190F9202091F920309A42F1DC2046C0
:10586000BDE87040FFF776BF600C00242DE9F04FD3
:1058700085B08146029128B96FF00301002400F041
:10588000B1FCBCE0002A45D0966846B1B40702D10D
:10589000D368432B06D86FF008010020EEE7D368E9
:1058A000002BF8D19769D2E904453CB1600702D1D9
:1058B000002D40F0B2806FF00A01EEE72FB17B1EA1
:1058C000372B03D96FF00B01E7E71827002D40F0C5
:1058D000A880D2E900A301934EBB574BD3F88800B0
:1058E000F0B1FEF7DCFE064600283AD04FF0010882
:1058F000002C44D1DFF840B1E5B9504ADBF8840010
:10590000556DB8B1FEF7CBFE0246E0B148F0100885
:10591000344623E092461446182715460192DCE7E8
:1059200001224421D3F88000FEF740FEDBE74FF070
:105930000008DDE722462946DBF87400FEF736FE54
:1059400002460028E4D1B8F1000F16D0DBF8882019
:1059500052B110463146FEF7BCFE002248F0020864
:105960007CB96FF0040198E73146DBF880000392C0
:10597000FEF751FE039A1446F0E74246EEE7224650
:10598000344640F2F1137FB2FD2184F80280238077
:10599000019BC4F804A0E370002384F8207084F80D
:1059A000217061846563C4E90233C4E90433C4E946
:1059B0000633C4E90933C4E90B32A5F140031344AB
:1059C000C4E90E391E4B13601C4B1B685B071AD4CD
:1059D000A36B00201A4603F1340143F8040B9942EB
:1059E000FBD1184B2046C2E90D394FF08073D363C9
:1059F000029B1362104B144A1A66FFF70FFF2046F2
:105A000005B0BDE8F08FAD084FF0CC33113D002D4F
:105A1000DED0013D42F8043FF9E7002F7FF44FAF9D
:105A2000182769077FF447AFA5F14801074B994252
:105A30007FF64FAF3FE700BF600C002460220708ED
:105A4000A52E5AE2C1550408755A0408B7FFFF7F16
:105A500038B504461546FFF7CFFE01602046FFF734
:105A600071FD1DB1BDE83840FFF7D8BEBDE8384034
:105A7000FFF770BE10B543780446332B0CD1416A52
:105A800090F82320FFF7AAFD014628B12046002206
:105A9000BDE81040FFF7DCBF10BD10B504468069BB
:105AA00018B100221146FFF7D3FF6378232B02BF02
:105AB000A36800229A6110BD70B50F4C267A022EA1
:105AC00018D1636AB3B16569E86AFFF721FA28461D
:105AD000FFF7E3FF04F11C00FFF718FE4670A0611A
